:020000040800F2
:10000000E00B002035020008814000089D390008FF
:100010007D400008B11C000869490008000000008C
:10002000000000000000000000000000D9460008A9
:10003000F11C00080000000093460008DB460008A1
:100040004F0200084F0200084F0200084F0200084C
:100050004F0200084F0200084F0200084F0200083C
:100060004F0200084F0200084F020008B51C0008AC
:100070004F0200084F0200084F0200084F0200081C
:100080004F0200084F0200084F0200084F0200080C
:100090004F0200084F0200084F0200084F020008FC
:1000A0004F020008614700084F0200084F02000895
:1000B0004F0200084F0200084F0200084F020008DC
:1000C0004F0200084F0200084F0200084F020008CC
:1000D0004F0200084F0200084F0200084F020008BC
:1000E0004F0200084F0200084F02000800F002F81B
:1000F00000F090F80AA090E8000C82448344AAF132
:100100000107DA4501D100F085F8AFF2090EBAE82F
:100110000F0013F0010F18BFFB1A43F0010318473B
:10012000705D0000905D0000103A24BF78C878C16F
:10013000FAD8520724BF30C830C144BF04680C60ED
:10014000704700000023002400250026103A28BF35
:1001500078C1FBD8520728BF30C148BF0B60704739
:100160006E2900F0A381702900F0E582662905F070
:100170009980652905F09680672905F093806129AB
:1001800005F0928003681B0A28BF41F080016929AD
:1001900000F05081642900F04D81752900F04A81FA
:1001A0006F2900F07282782900F0B182E92900F00D
:1001B0000D82E42900F00A82F52900F00782EF2978
:1001C00000F06F82F82900F0B0820368DB0928BFD5
:1001D00041F08001632900F0B387732900F0B887EC
:1001E000E32900F0C387F32900F0C8870020704797
:1001F0001FB501F019F804000020002104F02AFDC9
:10020000401C60600020002104F00EFDE0601FBD76
:1002100010B510BD00F0DAFF1146FFF7E9FF04F05A
:100220002DFC01F0B7F803B4FFF7F2FF03BC01F0B7
:10023000BBF800000948804709480047FEE7FEE791
:10024000FEE7FEE7FEE7FEE7FEE7FEE7FEE7FEE786
:1002500004480549054A064B704700005D47000801
:10026000ED000008E0050020E00B0020E007002082
:10027000E00700201CB50C46064B7B446946009005
:10028000204600F02CF904460020694600F03AF9B7
:1002900020461CBD870200004FF0000200B5134647
:1002A00094469646203922BFA0E80C50A0E80C5096
:1002B000B1F12001BFF4F7AF090728BFA0E80C5047
:1002C00048BF0CC05DF804EB890028BF40F8042B40
:1002D00008BF704748BF20F8022B11F0804F18BFAD
:1002E00000F8012B704700004FF0013C50F8042B40
:1002F00051F8043B9A4221D1A2EB0C03934313EA39
:10030000CC1317D150F8042B51F8043B9A4215D165
:10031000A2EB0C03934313EACC130BD150F8042B3C
:1003200051F8043B9A4209D1A2EB0C03934313EA20
:10033000CC13DBD04FF00000704700BFD01A01BAD9
:10034000B1FA81F101F0180122FA01F0CB40C1F1BC
:100350002001DBB2C0B2C01A2CFA01F3D11A9143CA
:1003600011EAC311E6D1704770477047704770B506
:10037000044685690068C10601D5302600E02026C4
:10038000C00707D070BDD4E9012130469047206AEC
:10039000401C20626D1EF6D570BD70B5044685699F
:1003A0000078C00707D170BDD4E901212020904713
:1003B000206A401C20626D1EF6D570BD09684A0592
:1003C00001D540B27047C905FCD500B27047096835
:1003D0004A0501D5C0B27047C905FCD580B2704747
:1003E00070B50C460546012A05D02878800600D550
:1003F000EA69002302E0012305E05B1C934202D27C
:10040000E05C0028F9D1A869E618C01AA861286A3A
:10041000184428622846FFF7AAFF04E0D5E9012125
:1004200014F8010B9047B442F8D32846FFF7B5FF04
:1004300070BD00002DE9F0410646002410687529C2
:10044000314616A510D0FFF7B9FF002802DA404266
:1004500013A507E031688A0701D512A502E0490714
:1004600004D511A5012401E0FFF7B1FF00210A2204
:1004700006F1240709E0B0FBF2FCB0FBF2F302FB4B
:100480001C00303078541846491C0028F3D123460C
:100490002A463046BDE8F04100F061BA0000000095
:1004A0002D0000002B0000002000000011680268F1
:1004B000006A530501D508700AE0D30501D508800C
:1004C00006E0130603D5C217C1E9000200E0086088
:1004D0000120704701694A1C02610878704700B525
:1004E0008FB0CDE901310021059105497944CDE96D
:1004F00003101146684600F029F90FB000BD000056
:10050000E5FFFFFF0A6802F8010B0A607047000070
:100510002DE9FF5F15468A460446DFF8AC80F844B3
:100520000027D8E900103E46CDE9001010E03AF867
:1005300016106A4602A800F025FE411C07D021785B
:10054000890603D5E269391891420DD80744761C13
:100550002078800602D5E069B84205DDAE42E6DBD0
:100560003AF816000028E2D1A069C01BA06120461D
:10057000FFF7FDFED8E90010CDE90010002017E0DC
:100580003AF818106A4602A800F0FCFDB0F1FF3FEF
:1005900081460BD000250DF1080B05E0D4E90121BF
:1005A0001BF8050090476D1C4D45F7D308F101007D
:1005B000B0428046E4DB206A384420622046FFF7E0
:1005C000ECFEBDE8FF9F0000725800002DE9F041ED
:1005D0008046D21D22F007020025D2E90002F5294B
:1005E00015A614D0011E72F1000106DA0023D0EB2B
:1005F000030063EB020211A608E0D8F800108B0795
:1006000001D50FA602E0490701D50EA60125114626
:10061000002408F1240704E000F05CF930323A5578
:10062000641C50EA0102F7D12B463246214640466F
:10063000BDE8F04100F093B9000000002D0000007B
:100640002B0000002000000030B4002100F1240441
:1006500008E002F00705D208303542EA4372DB08B1
:100660006554491C52EA0305F3D10468002310A223
:10067000250707D5A40600D421B1C46901230DA222
:10068000641EC46130BC00F06AB910B5044621464E
:100690001068FFF79CFE02462046BDE8104000238C
:1006A000D2E7D21D22F00701D1E90023CCE70000F8
:1006B0000000000030000000F0B40D46018809057C
:1006C00002D5214C7C4402E01F4C7C440E340021B6
:1006D00000F1240608E002F00F071209E75D42EA84
:1006E00003721B097754491C52EA0307F3D10278BD
:1006F0000023120704D5702D06D009B1022311344E
:100700002246F0BC00F02BB901231034F8E770B595
:1007100004460D4621461068FFF759FE0246294659
:100720002046BDE870400023C6E7D21D22F0070333
:10073000D3E90023C0E70368126843F02003036095
:100740000823C3610023B7E7D45600002DE9F05F0A
:10075000894604464FF0000ADFF874B1FB44C0F844
:1007600020A02046E1688847002874D0252806D0BC
:10077000D4E901219047206A401C2062F1E700265D
:100780005F462046E16888472028054607DB312D73
:1007900005D2781910F8200C08B10643F1E7B0072C
:1007A00001D526F00406C4F81CA00027C4F818A040
:1007B0002A2D09D0284604F009F938B304EB87083C
:1007C000303DC8F8185019E059F8041B204604EBD6
:1007D00087029161E1688847012F054618D1E069D9
:1007E000002820DA26F020061DE0D8F8180000EBDB
:1007F000800005EB40003038C8F818002046E1685A
:100800008847054604F0E2F80028EED1012F0AD00F
:100810002E2D08D12046E16888477F1C0546022F0F
:1008200046F02006C4DBA069002803DA404246F007
:100830000106A061F00701D026F010066C2D0BD048
:10084000682D09D04C2D39D06A2D35D0742D35D076
:100850007A2D33D016E038E0E1682F4620468847ED
:10086000B842054609D16C2F26D04FF48060E1686C
:10087000064320468847054604E06C2F1AD04FF403
:10088000807006430DB3A5F14100192802D8203528
:1008900046F400664A462946204626604E46FFF743
:1008A0005FFC80B101280BD0F61D26F0070000F197
:1008B000080956E74020E4E78020D8E70020D6E783
:1008C00006F104094DE7284652E7206ABDE8F09F8B
:1008D0006456000030B5B0F10A024FEA900E71F193
:1008E00000034EEA817EB0EB0E0061EB91014FEA0E
:1008F000101E4EEA017E10EB0E0041EB11114FEA83
:10090000102E4EEA016E10EB0E0041EB11214FEA62
:10091000104E4EEA014E10EB0E0041EB1141401813
:1009200041F100014FEAD00040EA41704FEAD101A5
:1009300010EB80054FEA810444EA907444EB010413
:100940006D1944EB0404521BA3414FF0000348BF50
:100950000A3200D530BD401C41F1000130BD2DE907
:10096000F0470D4699469246044600F12408016876
:10097000880604D5E06921F01001216000E0012023
:10098000A84201DD471B00E00027A1697A1902EBAC
:100990000900081AA0612078C00602D42046FFF79B
:1009A000E6FC002608E0D4E901211AF80600904789
:1009B000206A401C761C20624E45F4DB2078C0067D
:1009C0000AD52046FFF7D3FC06E0D4E90121302008
:1009D0009047206A401C2062381EA7F10107F4DC12
:1009E00007E0D4E9012118F805009047206A401C6F
:1009F0002062281EA5F10105F3DC2046FFF7CDFC9F
:100A00002078000602D50220BDE8F0870120FBE730
:100A100070472DE9FF4F0C461E464FF0FF378BB055
:100A2000D2E90001DDF860800A908A46C1F30A55D8
:100A300005B93D46002108464FF00000BAF1000F0D
:100A400000F4400005DA00EB80004FF4400101EAB9
:100A500050004FEA9059B9F1010F00DDB9460A98EC
:100A600050EA4A000ED044F61050A5F2FF35454337
:100A70002F14B8F1000F1ED07542291E1EDDC9F1DA
:100A800000021CE0B8F1010F4FF0000001D030214E
:100A900003E0F24305E02154401CB042FBDB30464A
:100AA0000022002121540B99C1F80880C1E90020DF
:100AB0000FB0BDE8F08FBD1B6D1CDEE74A4600DAC3
:100AC000694206A800F0F4FB06AB93E8070003AB0D
:100AD00083E8070050460A9900F06DFC8DE8070096
:100AE000A0F500501F3800900398002D0ADD42F257
:100AF0001F014A460844002303A90390684600F0FA
:100B0000D6FE09E0A0F500504A461F38002303A98D
:100B10000390684600F0E0FE8DE807000004000C3A
:100B200003D04FF0FF30410800E01046B8F1000F4D
:100B300003D00022009215461EE0751E05D4FFF773
:100B4000C9FE303262556D1EF9D5B3460122084305
:100B500002D000227F1C04E02078302801D100223E
:100B60007F1E002A099784D01DE0112D07DAFFF7B8
:100B7000B1FE303262556D1C50EA0102F5D10843D6
:100B800002D00098C8B10EE00021681E05E0235C89
:100B9000625C63542254401E491C8142F7DBAB4621
:100BA000A81B401E0990002004F80B000B98099A1E
:100BB000C0F80880C0E9002B7AE711264FF0000842
:100BC00057E72DE9F04F88460446D21D22F0070171
:100BD00091B0D1E90001CDE90A0103F0C7FE024658
:100BE0000B98C00F01D02D2007E02068810701D5A8
:100BF0002B2002E0202101EAC000032A099001D045
:100C0000072A05DB03464146204600F011FB0BE1B5
:100C10002078800601D5E06900E00620B8F1650F74
:100C2000814606D0B8F1660F18D0B8F1670F70D1C1
:100C300031E00020B9F1110F009001DB112301E038
:100C400009F101030AAA01A90CA8FFF7E2FEDDE9F8
:100C50000C70002609F10105834647E001204B4650
:100C600000904FF000470AAA01A90CA8FFF7D1FE97
:100C7000DDE90DB00C995D46002610B909F10100BF
:100C80000D18B9EB050003D4C0F1FF3609F10105D9
:100C9000A5EB09002BE0B9F1010F01DA4FF00109D2
:100CA0000020B9F1110F0090484601DD112300E04A
:100CB00003460AAA01A90CA8FFF7ABFEDDE90C70F8
:100CC0004D4600268346207800070AD4AB4500DA5B
:100CD0005D4601A8012D04DD411911F8011C3029E0
:100CE00007D04F4502DA17F1040F04DA01208246DB
:100CF0000FE06D1EEEE7002F02DCED1B3E4403E02B
:100D0000781CA84200DD7D1CB81B00F1010A4FF0E1
:100D100000472078000703D4AA4501DB4FF0FF3AD3
:100D20000021B7F1004F0DF143088DF8431024D096
:100D300002202B23002F01DA7F422D230A21021EDD
:100D4000A0F1010000DC5FB197FBF1FC97FBF1F231
:100D500001FB1C7C17460CF1300C08F801CDEEE7C6
:100D6000A8F1010003702188090501D5452100E0A3
:100D70006521A0F1010800F8011C09980FA9A1EB59
:100D80000807FF1D00B10120411901EBEA70A169BC
:100D90003844081A401EA0612078C00602D42046BC
:100DA000FFF7E5FA099828B1D4E901219047206AB4
:100DB000401C20622078C00622D52046FFF7D7FAD3
:100DC0001EE0002E04DBB34502DD01A8805D00E0DB
:100DD0003020D4E901219047206A401C2062761C13
:100DE000AAF101005FEA000A0AD100F01DFAC0680A
:100DF0000168405CD4E901219047206A401C2062D0
:100E0000281EA5F10105DCDC07E0D4E9012118F872
:100E1000010B9047206A401C2062381EA7F1010791
:100E2000F3DC2046FFF7B9FA032011B041E60000D9
:100E30002DE9F04F04460D46D21D22F0070089B07F
:100E4000D0E900974846394603F090FD0246F80F76
:100E500001D02D2307E02068810701D52B2302E074
:100E6000202101EAC0038DF820300BB1012000E001
:100E70000020032A824601D0072A04DB29462046A7
:100E800000F0D6F93FE12078800601D40D2500E07E
:100E9000E569C7F30A560D2D49DA00214FEA175BC1
:100EA00008464FF00000002F00F4400007DA00EB86
:100EB00080004FF4400100EBD07001EA6000811522
:100EC000012901DD4FF0FF3100224FEA850CBCF112
:100ED000180F06D31346ACF118004FF08052C240F1
:100EE00003E04FF4801323FA0CF30CF10C0CBCF16B
:100EF000200F04D3ACF1200C09FA0CF001E007FA42
:100F00000CF000294FF0004801DD18B90FE00ED1B8
:100F100040450CD319EB02095F4121B9404502D18C
:100F20009F4329EA0209BBEB175F00D0761C20889B
:100F3000000502D57B48784402E07A4878441938A5
:100F400008AA302302F80A30037C0AF10101002EBE
:100F50000AF1020A53546A4602DC4FF0300101E004
:100F60004FF031014FF001088DF8001002D0A6F2C9
:100F7000FF3603E059EA470100D06B4E002D02DC3A
:100F80002178090704D54FF002082E218DF80110B1
:100F9000C44600210BE0C7F303433F01C35C491C77
:100FA0006D1E02F80830052908F1010801DA002D4C
:100FB000F1DC00210CE000EB1973491C1B786D1E5D
:100FC000082902F808304FEA091908F1010801DA86
:100FD000002DF0DC21688B0602D516E0A8F101088F
:100FE000E04505DD02EB080313F8013C302BF5D09A
:100FF000B8F1000F09DD02EB080313F8013C2E2BBA
:1010000003D1090701D4A8F10108002D05DD3E2117
:1010100002F808106D1E08F10108407C002E02F84D
:10102000080008F1010804DA2D20764202F80800D1
:1010300002E02B2002F808000A214FF47A70864261
:1010400008F101080BDB96FBF0F3303302F80830AF
:1010500096FBF0F308F1010800FB136601E0642E33
:101060000CDB642096FBF0F3303302F8083096FB7B
:10107000F0F308F1010800FB136601E00A2E06DB1D
:1010800096FBF1F0303002F8080008F1010896FBF9
:10109000F1F001FB1060303002F80800A16908F19E
:1010A000010808EB050202EB0A00081AA06120788B
:1010B000C00602D42046FFF75AF9216A08AE01EBB8
:1010C0000A00206204E0D4E9012116F8010B9047E0
:1010D000BAF1010AF7D22078C00602D52046FFF700
:1010E00046F96E4609E016F8010B3E280FD0D4E908
:1010F00001219047206A401C2062B8F10108F2D219
:101100002046FFF74AF909B00320BDE8F08F206AB6
:101110002844206203E0D4E90121302090476D1E6D
:10112000EBD3F8E7AE4E000002FCFFFF10B54369B9
:1011300013B1AFF3008001E0FFF752F9012010BDB9
:10114000127800F124010A7000224A700122EDE7B2
:1011500011684FF0FF32E9E710B5436913B1AFF3FF
:10116000008001E0FFF7D4F9012010BD128800F1E2
:10117000240182840022C2840122EDE711684FF02D
:10118000FF32E9E770B516460C46054600F044F814
:10119000036893F80101012806D0FF2C0FD8185DD1
:1011A00068B101202C7070BDD3F80701324621468A
:1011B00003F2071303442846BDE8704018474FF078
:1011C000FF3070BD00487047800500207546FFF76E
:1011D000F9FFAE4605006946534620F007008546F4
:1011E00018B020B5FFF734F8BDE820404FF00006F6
:1011F0004FF000074FF000084FF0000B21F00701FF
:10120000AC46ACE8C009ACE8C009ACE8C009ACE841
:10121000C0098D467047000010B500F005F8001DAC
:1012200010BD00BF313A000000487047A005002003
:101230002DE9F0411F46044603260168072A01F400
:10124000006004DB08B116A505E016A503E008B1AF
:1012500015A500E015A521F010002060A069C01EB2
:10126000A0610FB1401EA0612046FFF780F84FB18A
:10127000D4E9012138469047206A401C2062C01CF6
:10128000206206E0206AFAE7D4E9012115F8010B93
:101290009047761EF8D22046FFF77FF8BDE8F08130
:1012A0004E414E006E616E00494E4600696E66000A
:1012B0002DE9F047814616468AB0354878440DC876
:1012C0008DE80D0032487844801C03AC0DC884E8DA
:1012D0000D0041F69B300844372190FBF1F290FB62
:1012E000F1F5A5F1800501FB12041B3C02D5644217
:1012F000012000E00020DFF898A080460027FA4493
:10130000AAF1BE0A0EE0E0070AD03246684607EBB3
:10131000470101230AEB810100F0DEFA8DE80700A6
:1013200064107F1C002CEED1194F7F44AE3F19E0B2
:10133000E80715D007EB04100DF1180A90E80E002D
:101340008AE80E00C068F04201D198190890324630
:10135000012306A903A800F0BFFA03AB83E8070046
:101360006D10641C002DE3D14FF001033246694635
:10137000B8F1000F03A802D000F099FA01E000F0E4
:10138000ABFAC9E90001C9F808200AB0BDE8F08746
:10139000B84B000010B50446AFF300802046BDE80E
:1013A0001040FEF740BF000001491820ABBEFEE729
:1013B0002600020070475FEA400C08BF91F0000F62
:1013C0004FEA8C234FEAC12243EA51514FEA1C50A5
:1013D00018BF00F5F0404FEA300018BF41F000415F
:1013E0005FEA6C5C00F02980BCF1FF3F08BF40F071
:1013F00080407047130C06BF12044FF0100C4FF0E2
:10140000000C130E04BF12020CF1080C130F04BFE2
:1014100012010CF1040C930F04BF92000CF1020CAA
:10142000D30F04BF52000CF1010C11464FF0000223
:10143000A0F11F00A0EB0C00704711F0004F08BF97
:10144000704731F000413FF4D5AF0B0C06BF0904E3
:101450004FF0100C4FF0000C0B0E04BF09020CF102
:10146000080C0B0F04BF09010CF1040C8B0F04BF17
:1014700089000CF1020CCB0F04BF49000CF1010CE8
:10148000CCF12003A0EB0C0022FA03F302FA0CF2D9
:1014900041EA030100F10100704720F07F4C80EA2F
:1014A000030023F07F47ACEB070303F57C5300F008
:1014B000004003F1FF032DE980494FEA154B09B4C1
:1014C0004FEA144325EA0B4E24EA03480FF20426A0
:1014D00006EB132749083E785FEA320203FB0667F2
:1014E000C7F5000707FB06F64FEA54374FEAD64622
:1014F00006F1020607FB066CCCF1005C4FEA1C47C4
:101500002CEA074C07FB06F40CFB06F504EB15462A
:101510004FEA961634BF00204FF000404FEAD13713
:1015200006FB07FC4FEA1C4C0CFB0BF7D21B03FB22
:101530000CF761EB07010CFB0EF7B0EB074072EB09
:1015400017420CFB08F734BFA2EB0742B2EB07428D
:1015500061EB17414FEA0C444FEA910706FB07FC89
:101560004FEA1C4C0CFB0BF7B0EBC74072EB573249
:1015700003FB0CF734BFA2EBC742B2EBC74261EBEF
:1015800057310CFB0EF7B0EBC70072EB57720CFB38
:1015900008F734BFA2EBC702B2EBC70261EB577189
:1015A000039F4FEA816141EA921104EBCC044FEAB8
:1015B000D1374FEA826206FB07FC42EA90124FEAFB
:1015C00080604FEA1C4C0CFB0BF7D21B03FB0CF7A3
:1015D00061EB07010CFB0EF7B0EB074072EB174213
:1015E0000CFB08F734BFA2EB0742B2EB074261EBFA
:1015F00017414FEA8C554FEA910704EB9C2406FBF8
:1016000007FC4FEA1C4C0CFB0BF7B0EBC74072EB2E
:10161000573203FB0CF734BFA2EBC742B2EBC74211
:1016200061EB57310CFB0EF7B0EBC70072EB577252
:101630000CFB08F734BFA2EBC702B2EBC70261EBA9
:10164000577115EB4C254FEA816141EA92114FEA3F
:1016500082624FEAD13742EA901206FB07FC44F15E
:1016600000044FEA80604FEA1C4C0CFB0BF7D21BC6
:1016700003FB0CF761EB07010CFB0EF7B0EB074027
:1016800072EB17420CFB08F734BFA2EB0742B2EB38
:10169000074261EB174115EB1C154FEA813141EA16
:1016A00092414FEA823242EA90424FEA80304FEA5A
:1016B0000C7644F1000448EA03434EEA0B484FF02D
:1016C000000EB2EB080C71EB030724BF62463946EB
:1016D0004EEB0E0E4FF0000B0018524149414BEB00
:1016E0000B0BB2EB080C71EB03077BF1000B24BF73
:1016F000624639464EEB0E0E4FF0000B0018524179
:1017000049414BEB0B0BB2EB080C71EB03077BF180
:10171000000B24BF624639464EEB0E0E51EA02071B
:1017200018BF46F0010616EB0E7655F1000254F193
:10173000000103D5BDE88901BDE80088BDE8890145
:10174000BDE80048B619524141EB0101A3F1010384
:10175000704780807F7E7D7C7B7A7978777676751E
:101760007473727171706F6E6E6D6C6C6B6A6A6996
:101770006868676666656464636362616160605F30
:101780005F5E5E5D5D5C5C5B5B5A5A5959585857A9
:101790005756565555555454535352525251515011
:1017A00050504F4F4F4E4E4D4D4D4C4C4C4B4B4B64
:1017B0004A4A4A49494948484847474747464646AA
:1017C00045454544444444434343434242424241E5
:1017D0004141002B9C4630D477002BD01CB54FEAFA
:1017E000370703B44FF010004FF01001BAF1000FAB
:1017F00006D0BCF1000FDCBF40F0080040F008014B
:101800004FF000000FBCBDE810400BF1010BBBF125
:10181000010F08BF5FEA170722BF12F1010211F1A1
:1018200001014FF0004143F1000300F0004043EAA2
:1018300000007047F9D35708D0E746EA064613F18F
:10184000400F4FEA16461FDD13F1200FDFBF16438E
:101850000A46002120335B42BED0C3F1200746EA8E
:10186000064602FA07F74FEA164646EA0706C3F1AC
:10187000200722FA03F201FA07F721FA03F14FF0E9
:10188000000342EA0702A7E746EA020646EA0646DE
:101890004FEA164646EA0106BCBF46EA0646360C43
:1018A0004FF000034FF000024FF0000194E72DE9E4
:1018B000804C9A46934670B491E8380007C831EAE4
:1018C000400C48BF34EA430C03D5FFF7E6FDFFF7B1
:1018D00080FFF0BCBDE8008C2DE9804C9A46934611
:1018E00070B491E8380007C810F0804F08BF13F0BB
:1018F000804F03D100F005F8FFF76BFFF0BCBDE8A7
:10190000008C20F07F4780EA030023F07F4C07EB38
:101910000C03A3F57C5300F00040A3F1FE0392F00A
:10192000000F00F0B38095F0000F00F077802DE9F4
:1019300001494FEA11404FEA144621EA004800FBF2
:1019400006FC24EA064708FB06F607FB08F800FB3E
:1019500007F718EB06484CEB164C4FEA124B18EB06
:1019600007484FEA15464CEB174022EA0B4E0BFB9B
:1019700006FC25EA06470EFB06F607FB0EFE0BFBF0
:1019800007F71EEB064E4CEB164C4FF000061EEB15
:10199000074E4CEB174B18EB0B0840F1000018EB0F
:1019A0000E0B58EB000840F100008F1A4FF00001B9
:1019B0003CBFC943661B14BFB5EB040C00213CBF00
:1019C000C943F61B4FEA17444EEA8E0E27EA044538
:1019D0004FEA1C4704FB07622CEA074C05FB07F79C
:1019E0000CFB05F604FB0CFC16EB074642EB17421A
:1019F00016EB0C4642EB1C421BEB060658EB0202B0
:101A0000414146EA9E0601D5BDE80189B619524119
:101A100041EB0101A3F10103BDE801894FEA14453F
:101A20004FEA114724EA054621EA074C05FB07F473
:101A300006FB07F70CFB06F105FB0CFC11EB07415D
:101A400044EB17444FEA124711EB0C4144EB1C44A2
:101A500022EA074C05FB07F206FB07F70CFB06F62C
:101A600005FB0CFC16EB074642EB174216EB0C4647
:101A700042EB1C456A1854F1000148BF7047B61983
:101A8000524141EB0101A3F10103704795F0000FB2
:101A900037D04FEA11424FEA144721EA024624EABE
:101AA000074C02FB07F106FB07F70CFB06F402FBF1
:101AB0000CFC14EB074441EB17414FEA154714EBBC
:101AC0000C4441EB1C4125EA074C02FB07F506FBE1
:101AD00007F70CFB06F602FB0CFC16EB074645EB82
:101AE000174516EB0C4645EB1C42121951F100014B
:101AF00048BF7047B619524141EB0101A3F1010300
:101B000070474FEA14454FEA114724EA054621EA97
:101B1000074C05FB07F106FB07F70CFB06F24FF03D
:101B2000000605FB0CFC12EB074241EB174112EBE0
:101B30000C4251EB1C4148BF7047921841EB010128
:101B4000A3F10103704770B5044600252068806842
:101B500000F0010018B32068806820F001002168BF
:101B6000886000F01BFF054613E000F017FF401BE4
:101B700002280ED92068806800F0010048B1A06AF0
:101B800040F01000A062E06A40F00100E062012035
:101B900070BD2068806800F001000028E5D10020B9
:101BA000F6E770B505466C6AA06A00F05000E0B92F
:101BB000A06A40F40070A0622068806800F4602091
:101BC000B0F5602F0DD1207B58B9A06A20F4807049
:101BD000A062A06A00F4805018B9A06A40F0010029
:101BE000A062204600F010FA03E0206A016B28464C
:101BF000884770BD70B505466C6AA06A40F0400029
:101C0000A062E06A40F00400E062204600F0FEF9C5
:101C100070BD70B50446656A284600F0F6F970BDDF
:101C200038B504460025002000902068806800F048
:101C3000010078BB2068806840F00100216888605E
:101C4000194800681949B0FBF1F0009002E00098D3
:101C5000401E009000980028F9D100F09FFE054634
:101C600019E000F09BFE401B022814D92068806810
:101C700000F0010078B9A06A40F01000A062E06AAC
:101C800040F00100E06200BF002084F8240000BFA3
:101C9000012038BD05E02068806800F001000028C0
:101CA000DFD00020F5E700007800002040420F0060
:101CB00000BFFEE710B5024800F064FB10BD000055
:101CC000AC04002030B590F840500124AC40C56B06
:101CD0006C60046863604468102C04D10468A260DE
:101CE0000468E16003E00468A1600468E26030BD5C
:101CF000704772B600BFFEE7F8B504460026002024
:101D0000009000BF94F82400012801D10220F8BD02
:101D1000012084F8240000BF2046FFF714FF064688
:101D20002046FFF77DFF0646002E69D1A06A20F409
:101D3000885040F00200A062022000F007FF344902
:101D40000968B1FBF0F04000009002E00098401EEE
:101D5000009000980028F9D12068806840F00800C1
:101D60002168886000F01AFE054616E000F016FEB5
:101D7000401B0A2811D92068806800F0080060B173
:101D8000A06A20F0020040F01000A06200BF002016
:101D900084F8240000BF0120B9E72068806800F0C3
:101DA00008000028E2D12068806840F00400216823
:101DB000886000F0F3FD054616E000F0EFFD401BE3
:101DC0000A2811D92068806800F0040060B1A06A78
:101DD00020F0020040F01000A06200BF002084F854
:101DE000240000BF012092E72068806800F0040012
:101DF0000028E2D1A06A20F0020040F00100A062B9
:101E000000BF002084F8240000BF30467FE70000B8
:101E10007800002010B502461F4B0868984207D092
:101E20001E4B0868984203D01D4B0868984200D1A9
:101E300000BF00BF92F82400012801D1022010BD8C
:101E4000012082F8240000BF087A012806D110681A
:101E5000406840F040001368586005E01068406832
:101E600020F0400013685860D1E90003184313685C
:101E70005B680C4C2340184313685860C8681368AB
:101E8000586208691368986200BF002082F8240035
:101E900000BF00BFD3E70000000280000002400046
:101EA0000002C000E0FD3FFF38B5024600230020DD
:101EB000009000BF92F82400012801D1022038BD13
:101EC000012082F8240000BF4868072812D2106859
:101ED000406B0C79641E04EB84051F24AC40A043C6
:101EE0000D796D1E05EB85050C68AC402043146828
:101EF000606327E048680D2812D21068006B0C79E7
:101F0000E41F04EB84051F24AC40A0430D79ED1FB2
:101F100005EB85050C68AC4020431468206311E094
:101F20001068C06A0C790D3C04EB84051F24AC409A
:101F3000A0430D790D3D05EB85050C68AC402043B1
:101F40001468E06208680A2812D31068C0680C7828
:101F50000A3C04EB44050724AC40A0430D780A3D3D
:101F600005EB45058C68AC4020431468E0600FE049
:101F7000106800690C7804EB44050724AC40A043CA
:101F80000D7805EB45058C68AC4020431468206152
:101F90000868102802D00868112827D1174C10684B
:101FA000A0421ED11068806800F40000F0B91068EB
:101FB000806840F400001468A0600868102815D1FB
:101FC0000F4800680F4CB0FBF4F000EB80004000BD
:101FD000009002E00098401E009000980028F9D17F
:101FE00004E0906A40F020009062012300BF0020CE
:101FF00082F8240000BF184661E700000024014079
:102000007800002040420F00704770477047000082
:102010002DE9F0410446002700250026A84614B902
:102020000120BDE8F081A06810B1207D00B100BFA3
:10203000A06A30B90020E06284F82400204600F055
:1020400089F82046FFF77FFD0746A06A00F01000E0
:10205000002873D1002F71D1A06A20F4885040F07D
:102060000200A062E16960680843217B40EA410008
:102070000643A068B0F5807F02D0A068012802D195
:102080004FF4807000E000200543207D012811D12D
:10209000207B38B9A069401E4FF4006141EA40300E
:1020A000054307E0A06A40F02000A062E06A40F02B
:1020B0000100E0622068406820F4694028432168FC
:1020C0004860206880682149084030432168886062
:1020D000A068B0F5807F02D0A068012802D14FF43B
:1020E000807000E00020B0F5807F03D1208A401E80
:1020F0004FEA00582068C06A20F4700040EA0800E7
:102100002168C8622068806811490840B04208D13F
:102110000020E062A06A20F0020040F00100A0620E
:1021200011E0A06A20F0020040F01000A062E06A16
:1021300040F00100E062012705E0FFE7A06A40F0FF
:102140001000A062012738466BE70000FDF7E1FFB1
:10215000FE0E1FFF10B586B00446002002900390CB
:10216000049005902249206888423ED100BF214852
:10217000806940F400701F4988610846806900F456
:102180000070019000BF00BF00BF0846806940F0AA
:10219000040088610846806900F00400019000BFD7
:1021A00000BF372002900320039002A9124800F0DC
:1021B0004DFA12481249086000204860002110487A
:1021C00081608021C1604900016189004161202155
:1021D00081610021C16100F0A3F908B1FFF789FD19
:1021E00000BF07482062446200BF06B010BD000077
:1021F0000024014000100240000801400800024095
:10220000AC0400202DE9F04104460D461646002797
:1022100057492068884203D056492068884205D132
:102220005348001D006800F4702000E000200028E2
:102230007ED100BF94F82400012802D10220BDE81D
:10224000F081012084F8240000BF2046FFF7E8FC5D
:102250000746002F6DD1A06A40F60161884340F423
:102260008070A06243492068884209D14048001D1F
:10227000006800F4702008B9012002E0002000E0AE
:10228000012078B1A06A20F48010A0622068406824
:1022900000F4806000B3A06A20F4005040F4805045
:1022A000A06219E0A06A40F48010A0623049206862
:1022B000884203D02F492068884205D12C48001D50
:1022C000006800F4806000E0002028B1A06A20F4DB
:1022D000005040F48050A062A06A00F4805020B109
:1022E000E06A20F00600E06201E00020E06200BF4A
:1022F000002084F8240000BF1F48216A88621F481C
:10230000216AC8621E48216A08636FF002002168D2
:1023100008602068806840F48070216888602268C6
:1023200002F14C0133462A46206A00F02DF901E003
:102330001AE014E02068806800F46020B0F5602F97
:1023400006D12068806840F4A000216888600CE015
:102350002068806840F480102168886005E000BF34
:10236000002084F8240000E00127384667E70000D9
:102370000024014000280140A31B0008131C000892
:10238000F51B000870B50446E06B05682068066818
:1023900094F84010042088402840002846D006F0D9
:1023A0000400002842D02068006800F0200028B90E
:1023B0002068006820F00400216808605749206800
:1023C000884201D1042027E0544914312068884212
:1023D00001D1402020E0514928312068884201D1B4
:1023E000001519E04D493C312068884202D14FF474
:1023F000804011E0494950312068884202D14FF4B1
:10240000802009E0454964312068884202D14FF4B8
:10241000800001E04FF08060404908394860E06A80
:1024200000287AD02046E16A884776E094F8401088
:10243000022088402840A0B306F0020088B320683C
:10244000006800F0200040B92068006820F00A0011
:1024500021680860012084F8210030492068884202
:1024600001D1022028E02D4914312068884201D191
:10247000202021E0294928312068884201D14015D7
:102480001AE026493C312068884202D14FF40050BE
:1024900012E0224950312068884203D14FF40030C5
:1024A0000AE017E01D4964312068884202D14FF4E8
:1024B000001001E04FF0007018490839486000BF73
:1024C000002084F8200000BFA06A30B32046A16A33
:1024D000884722E094F84010082088402840E0B166
:1024E00006F00800C8B12068006820F00E002168DE
:1024F000086094F8401001208840E16B486001209A
:10250000A06384F8210000BF002084F8200000BFF1
:10251000206B10B12046216B884770BD0800024037
:102520000146002209B901207047164B0868C01AFD
:102530001423B0FBF3F08000086412480838C86325
:10254000022081F821000868026843F6F070824397
:10255000D1E901031843CB6818430B6918434B6951
:1025600018438B691843CB6918430243086802601B
:1025700000208863012081F82100002081F82000DC
:1025800000BFD1E7080002402DE9F04104460D46A6
:1025900016461F464FF0000800BF94F8200001289F
:1025A00002D10220BDE8F081012084F8200000BFA4
:1025B00094F8210001282CD1022084F82100002069
:1025C000A0632068006820F00100216808603B4695
:1025D000324629462046FFF775FBE06A30B1206895
:1025E000006840F00E00216808600BE02068006879
:1025F00020F00400216808602068006840F00A00AC
:10260000216808602068006840F0010021680860C7
:1026100006E000BF002084F8200000BF4FF0020851
:102620004046BFE770B5044600F0B8F906462546B7
:10263000681C10B104480078054400BF00F0AEF9F2
:10264000801BA842FAD370BD740000202DE9F84722
:102650000346002294466EE14FF0010808FA02F4A6
:10266000D1F8008008EA0400A0427DD1DFF8DCA2A6
:10267000D1F80480A8EB0A09D0453AD014DCB8F1AF
:10268000030F50D009DCB8F1000F31D0B8F1010FC1
:102690001CD0B8F1020F49D120E0B8F1110F18D0C9
:1026A000B8F1120F42D11EE0B9F5881F25D006DC23
:1026B000B9F5803F20D0B9F5801F37D11AE0B9F5C0
:1026C000001F18D0B9F5041F30D117E0D1F80CC0A5
:1026D0002DE0D1F80C8008F1040C28E0D1F80C8032
:1026E00008F1080C23E0D1F80C8008F10C0C1EE076
:1026F00000BF00BF00BF00BF00BF00BFD1F808800F
:10270000B8F1000F02D14FF0040C0BE0D1F80880B3
:10271000B8F1010F03D14FF0080C1C6102E04FF03B
:10272000080C5C6103E04FF0000C00E000BF00BF4C
:10273000FF2801D8984601E003F104084646FF2827
:1027400002D84FEA820803E0A2F108084FEA88089D
:102750004746D6F800804FF00F0909FA07F928EA32
:1027600009080CFA07F900E088E048EA0908C6F809
:102770000080D1F8048008F08058B8F1805F7DD1E6
:1027800000BFDFF8CC81D8F8188048F00108DFF8E6
:10279000C091C9F81880C846D8F8188008F0010818
:1027A000CDF8008000BF00BF4FEAB9384FEA920968
:1027B00058F829504FEA82784FEA18794FF00F08FD
:1027C00008FA09F825EA0805DFF88881434502D1AF
:1027D0004FF0000816E0DFF88081434502D14FF04A
:1027E00001080FE0DFF87481434502D14FF0020881
:1027F00008E0DFF86C81434502D14FF0030801E0A7
:102800004FF004084FEA82794FEA197908FA09F87B
:1028100048EA0505DFF84C814FEA920948F829504B
:10282000D1F8048008F48018B8F5801F0AD1DFF8C9
:102830003881D8F8008048EA0008DFF82C91C9F800
:10284000008009E0DFF82081D8F8008028EA00083D
:10285000DFF81491C9F80080D1F8048008F400185A
:10286000B8F5001F10D1DFF8008108F10408D8F88E
:10287000008048EA0008DFF8F09000E05AE009F133
:102880000409C9F800800DE0DFF8DC8008F10408D5
:10289000D8F8008028EA0008DFF8CC9009F1040994
:1028A000C9F80080D1F8048008F40038B8F5003F7A
:1028B0000ED1DFF8B480A8F10408D8F8008048EA07
:1028C0000008DFF8A490A9F10409C9F800800DE020
:1028D000DFF89480A8F10408D8F8008028EA0008FE
:1028E000DFF88490A9F10409C9F80080D1F80480C8
:1028F00008F48038B8F5803F0ED1DFF86C80A8F17D
:102900000808D8F8008048EA0008DFF85C90A9F1D0
:102910000809C9F800800DE0DFF84C80A8F108082C
:10292000D8F8008028EA0008DFF83C90A9F10809EF
:10293000C9F80080521CD1F8008028FA02F8B8F1DA
:10294000000F7FF489AEBDE8F88700000000111089
:102950000010024000080140000C0140001001403E
:102960000014014008000140080401400246936839
:102970000B400BB1012000E00020704710B5C26889
:1029800021EA020302EA010443EA0443036110BDA1
:102990000AB1016101E00B0403617047014800685E
:1029A000704700006C000020034800680349097864
:1029B00008440149086070476C0000207400002042
:1029C00010B50848006840F0100006490860032070
:1029D00000F0A8F80F2000F007F800F02BF8002016
:1029E00010BD00000020024070B504460E4800787B
:1029F0004FF47A71B1FBF0F00C490968B1FBF0F5C6
:102A0000284600F00FFD08B1012070BD102C07D240
:102A100000222146501E00F047F80548046001E0FE
:102A20000120F2E70020F0E7740000207800002089
:102A30007000002008B500BF1148806940F0010017
:102A40000F4988610846806900F00100009000BFCE
:102A500000BF00BF0846C06940F08050C86108460A
:102A6000C06900F08050009000BF00BF00BF054962
:102A7000486820F0E06040F00070486000BF08BD8A
:102A8000001002400000014001460846002809DB12
:102A900000F01F0301229A4043099B0003F1E02349
:102AA000C3F8002100BF70472DE9F05F80460D4656
:102AB0001646002701F06EFF074639462A46334680
:102AC00001F00700C0F1070ABAF1040F02D94FF074
:102AD000040A01E0C0F1070AD14600F1040ABAF184
:102AE000070F02D24FF0000A01E0A0F1030AD4461A
:102AF0004FF0010A0AFA09FAAAF1010A0AEA020ADF
:102B00000AFA0CFA4FF0010B0BFA0CFBABF1010BBC
:102B10000BEA030B4AEA0B042146404601F042FF50
:102B2000BDE8F09F00BF00F00702064B19684FF6A2
:102B3000FF031940044B0B4343EA0221014B196088
:102B400000BF70470CED00E00000FA052DE9F047EA
:102B500006464FF00008002500270024A146012E5C
:102B600031D0022E56D0102E5FD132484468006812
:102B700000F0807008B33048C4F38341475C04F42C
:102B8000803078B12B484068C0F340402B4911F8A1
:102B9000008004F4803040B12948B0FBF8F000FB1D
:102BA00007F502E0274807FB00F52248406800F4DB
:102BB0008000B0F5800F01D1A94603E06800032131
:102BC000B0FBF1F932E01B48046A04F44070B0F540
:102BD000807F05D104F0020010B14FF4004918E0E5
:102BE00004F44070B0F5007F07D11248406A00F04D
:102BF000020010B149F640490BE004F44070B0F512
:102C0000407F06D10B48006800F4003008B14FF255
:102C100024490BE000F08CF906494968C1F3813181
:102C2000491C4900B0FBF1F900E000BF00BF484675
:102C3000BDE8F08700100240695D0008795D00087A
:102C400000127A0000093D00F8B504460026002570
:102C5000207800F0010000286BD000274348C069AD
:102C600000F0805070B900BF4048C06940F080500B
:102C70003E49C8610846C06900F08050009000BF1E
:102C800000BF01273A48006800F48070B0B93848A6
:102C9000006840F4807036490860FFF77FFE064602
:102CA00006E0FFF77BFE801B642801D90320F8BDF6
:102CB0002F48006800F480700028F2D02B48006A8A
:102CC00000F440752DB3A08800F44070A84220D0D5
:102CD0002648006A20F4407501202649086000203B
:102CE00008602248056205F0010090B1FFF756FE2A
:102CF000064608E0FFF752FE801B41F28831884209
:102D000001D90320D3E71948006A00F00200002827
:102D1000F0D01648006A20F44070616808431349F7
:102D20000862012F04D10846C06920F08050C861B4
:102D300000BF207800F00200022807D10B4840684D
:102D400020F44040A168084308494860207800F01A
:102D50001000102807D10548406820F48000E16881
:102D60000843024948600020A1E70000001002402B
:102D7000007000404004424270B504460D460CB954
:102D8000012070BD5A48006800F00700A8420ED22A
:102D90005748006820F00700284355490860084656
:102DA000006800F00700A84201D00120E9E7207880
:102DB00000F0020002281DD1207800F00400042851
:102DC00005D14C48406840F4E0604A4948602078AA
:102DD00000F00800082805D14648406840F46050DB
:102DE000444948604348406820F0F000A168084327
:102DF00040494860207800F0010078B360680128FD
:102E000006D13C48006800F4003090B90120B8E7D2
:102E10006068022806D13748006800F0007040B9A9
:102E20000120AEE73348006800F0020008B9012035
:102E3000A7E73048406820F00300616808432D4947
:102E40004860FFF7ABFD064609E0FFF7A7FD801BD2
:102E500041F28831884202D9032092E707E02548F1
:102E6000406800F00C006168B0EB810FEDD12048A4
:102E7000006800F00700A8420ED91D48006820F045
:102E8000070028431A4908600846006800F0070058
:102E9000A84201D0012074E7207800F00400042843
:102EA00007D11448406820F4E060E1680843114904
:102EB0004860207800F00800082808D10D484068D4
:102EC00020F46050216940EAC1000A49486000F0DE
:102ED0003FF808494968C1F30311074A515CC840EB
:102EE0000649086006480068FFF77EFD002048E7B5
:102EF00000200240001002407B5D000878000020A6
:102F00007000002001480068704700007800002031
:102F100000B5FFF7F7FF04494968C1F30221034AEE
:102F2000515CC84000BD0000001002408B5D0008ED
:102F300000B5FFF7E7FF04494968C1F3C221034A1E
:102F4000515CC84000BD0000001002408B5D0008CD
:102F500070B500210022002400230020134D696871
:102F600001F00C05F5B1042D02D0082D19D101E0B6
:102F70000F4819E00F4DC1F38346AB5D01F4803576
:102F800055B10A4D6D68C5F340450B4E725D084D55
:102F90005D43B5FBF2F402E0084D03FB05F4204667
:102FA00002E000BF024800BF00BF70BD0010024039
:102FB00000127A00575D0008675D000800093D00B7
:102FC000F8B504460CB90120F8BD207800F00100E6
:102FD000002878D0F848406800F00C0004280CD095
:102FE000F548406800F00C00082811D1F24840680C
:102FF00000F48030B0F5803F0AD1EF48006800F45B
:10300000003000285FD0606800285CD10120DBE739
:1030100000BF6068B0F5803F06D1E748006840F423
:103020008030E549086028E0606858B9E2480068E7
:1030300020F48030E04908600846006820F48020D1
:1030400008601AE06068B0F5A02F0BD1DA4800687C
:1030500040F48020D84908600846006840F4803079
:1030600008600AE0D448006820F48030D249086043
:103070000846006820F48020086000BF606888B1BE
:10308000FFF78CFC054606E0FFF788FC401B642830
:1030900001D9032098E7C848006800F400300028F0
:1030A000F2D010E0FFF77AFC054606E0FFF776FC69
:1030B000401B642801D9032086E7BF48006800F45C
:1030C00000300028F2D1207800F00200022857D109
:1030D000B948406800F00C0050B1B748406800F0B3
:1030E0000C00082818D1B448406800F4803098B922
:1030F000B148006800F0020020B12069012801D029
:10310000012061E7AC48006820F0F800616940EAFE
:10311000C100A949086033E02069E8B10120A7494E
:103120000860FFF73BFC054606E0FFF737FC401B55
:10313000022801D9032047E79F48006800F00200F9
:103140000028F2D09C48006820F0F800616940EA4D
:10315000C1009949086013E0002098490860FFF712
:103160001DFC054606E0FFF719FC401B022801D9AB
:10317000032029E79048006800F002000028F2D1FF
:10318000207800F0080008282DD1A069B8B10120EE
:103190008B490860FFF702FC054606E0FFF7FEFBDF
:1031A000401B022801D903200EE78348406A00F043
:1031B00002000028F2D0012001F07AFA13E000208A
:1031C0007F490860FFF7EAFB054606E0FFF7E6FBEC
:1031D000401B022801D90320F6E67748406A00F038
:1031E00002000028F2D1207800F00400042873D1F6
:1031F00000277148C06900F0805070B900BF6E4868
:10320000C06940F080506C49C8610846C06900F050
:103210008050009000BF00BF01276A48006800F49A
:103220008070B0B96748006840F4807065490860F4
:10323000FFF7B4FB054606E0FFF7B0FB401B642830
:1032400001D90320C0E65F48006800F480700028C0
:10325000F2D000BFE068012806D15748006A40F06C
:1032600001005549086227E0E06858B95248006AF1
:1032700020F00100504908620846006A20F004006E
:10328000086219E0E06805280BD14B48006A40F05D
:103290000400494908620846006A40F001000862DB
:1032A0000AE04548006A20F00100434908620846E8
:1032B000006A20F00400086200BFE068A0B1FFF7D8
:1032C0006DFB054609E0FFF769FB401B41F28831C1
:1032D000884202D9032077E622E03748006A00F0EE
:1032E00002000028EFD012E0FFF758FB054608E087
:1032F000FFF754FB401B41F28831884201D903207B
:1033000062E62D48006A00F002000028F0D1012F8B
:1033100005D12948C06920F080502749C86100BF05
:10332000E069C8B32448406800F00C00082860D069
:10333000E069022848D1002020490866FFF72EFBEB
:10334000054606E0FFF72AFB401B022801D90320AF
:103350003AE61948006800F000700028F2D1206AAF
:10336000B0F5803F07D11448406820F40030A168D0
:10337000084311494860D4E9080108430E494968E7
:1033800021F4741108430C49486001200B49086678
:10339000FFF704FB054607E03DE0FFF7FFFA401B9F
:1033A000022801D903200FE60348006800F00070EE
:1033B0000028F2D02FE0000000100240000042423E
:1033C0008004424200700040002014490866FFF764
:1033D000E5FA054606E0FFF7E1FA401B022801D9AD
:1033E0000320F1E50E48006800F000700028F2D1DB
:1033F00011E0E069012800D1E6E50948466806F4D5
:103400008031206A814204D106F47011606A8142E1
:1034100001D00120D8E50020D6E50000000042429E
:103420000010024070B504462546681EB0F1807F4A
:1034300001D301200FE0681E4FF0E02148610F2109
:103440004FF0FF3001F0AEFA00204FF0E02188612C
:1034500007200861002070BD7047704730B50246F4
:103460000B4600BF92F83C00012801D1022030BD7C
:10347000012082F83C0000BF022082F83D00106865
:1034800044681068816824F0700418680443106868
:103490004460104D1068A8420BD01068B0F1804F06
:1034A00007D00D4D1068A84203D00C4D1068A842FB
:1034B00005D121F080015868014310688160012026
:1034C00082F83D0000BF002082F83C0000BF00BF32
:1034D000CDE70000002C014000040040000800403F
:1034E00010B504460CB9012010BD94F83D0028B970
:1034F000002084F83C00204600F026F8022084F8E2
:103500003D00211D206801F033F9012084F84600B8
:1035100000BF84F83E0001213F20015540200155A5
:103520004120015500BF00BF012084F84200432024
:103530000155442001554520015500BF012084F864
:103540003D000020D0E7000038B504460D49206852
:10355000884215D100BF0C48806940F400600A49D8
:1035600088610846806900F40060009000BF00BFD9
:10357000002211461920FFF797FA1920FFF784FA65
:1035800038BD0000002C014000100240014691F8B7
:103590003D00012801D001207047022081F83D0044
:1035A0000868C06840F001000B68D860124B0868DA
:1035B00098420BD00868B0F1804F07D00F4B0868D5
:1035C000984203D00E4B086898420CD10868806876
:1035D00000F00702062A0CD00868006840F00100DD
:1035E0000B68186005E00868006840F001000B688F
:1035F00018600020D0E70000002C014000040040CB
:10360000000800402DE9F04104460D46002700BFA8
:1036100094F83C00012802D10220BDE8F08101208D
:1036200084F83C0000BF022084F83D0020688668D2
:1036300026F0770626F47F462068866028685028A2
:1036400033D00CDC202850D004DC00284BD01028CC
:1036500051D149E0302849D040284CD139E0602888
:103660002DD0702807D0B0F5805F03D0B0F5005F93
:1036700041D10DE041E0D5E902136A68206801F00C
:10368000B9F82068866846F077062068866034E0DE
:10369000D5E902136A68206801F0ACF820688068F8
:1036A00040F480402168886027E0EA686968206803
:1036B00001F0B4F85021206801F0A7F81DE0EA6895
:1036C0006968206801F0BDF86021206801F09DF86C
:1036D00013E0EA686968206801F0A0F840212068DA
:1036E00001F093F809E000BF00BF00BF296820681F
:1036F00001F08BF801E0012700BF00BF012084F832
:103700003D0000BF002084F83C0000BF384684E73D
:10371000704770B504462068C5682068066906F0E1
:103720000200022819D105F00200022815D1401F1D
:1037300021680861012020772068806900F003007B
:1037400018B12046FFF7E4FF05E0204600F097F8A7
:10375000204600F095F80020207706F004000428A9
:1037600019D105F00400042815D1C043216808616F
:10377000022020772068806900F4407018B120464C
:10378000FFF7C6FF05E0204600F079F8204600F07C
:1037900077F80020207706F00800082819D105F0F6
:1037A0000800082815D1C04321680861042020774B
:1037B0002068C06900F0030018B12046FFF7A8FF99
:1037C00005E0204600F05BF8204600F059F80020A4
:1037D000207706F01000102819D105F010001028ED
:1037E00015D1C04321680861082020772068C0698E
:1037F00000F4407018B12046FFF78AFF05E020462C
:1038000000F03DF8204600F03BF80020207706F05D
:10381000010048B105F0010030B16FF001002168EE
:103820000861204600F02EF806F08000802809D1BB
:1038300005F08000802805D1C0432168086120463A
:10384000FFF70AFE06F04000402809D105F04000CD
:10385000402805D1C04321680861204600F01EF8C9
:1038600006F02000202809D105F02000202805D1ED
:10387000C043216808612046FFF7EFFD70BD704727
:103880007047000010B5044603492068884201D102
:1038900000F0A6F810BD0000002C0140704710B5E4
:1038A00004460CB9012010BDA06900B100E000BFC2
:1038B00094F8410028B9002084F84000204600F028
:1038C00029F8242084F841002068C06820F40050C2
:1038D0002168C860204600F0C9FF2068006920F414
:1038E0009040216808612068406920F02A00216822
:1038F00048612068C06840F400502168C86000201A
:103900006064202084F8410084F842000020606355
:1039100000BFC8E710B586B00446002002900390AF
:10392000049005901A49206888422ED100BF19489A
:10393000806940F48040174988610846806900F436
:103940008040019000BF00BF00BF0846806940F082
:10395000040088610846806900F00400019000BFFF
:1039600000BF48150290022003900320059002A991
:103970000948FEF76BFE4FF4806002900020039030
:10398000049002A90448FEF761FE06B010BD0000D5
:1039900000380140001002400008014000BFFEE76F
:1039A00010B5094800F0F2F9084800F0F5F90848A8
:1039B00000F0DAF9074800F0DDF9074800F0E0F917
:1039C000064800F0EFF910BD95460008F14B0008DD
:1039D000DD490008454A0008614A00080D4C00080E
:1039E00070B50024AEE104EB8402D84B03EB8202F5
:1039F000918804EB840253F82200FEF7B7FF0546D6
:103A000004EB8400D14901EB80008079052812D2B3
:103A1000DFE800F003124BD6FD0065B9012004EB8E
:103A20008401CA4A02EB81018871002004EB840101
:103A300002EB8101C87182E16DBB04EB8400C349D4
:103A400001EB8000C079401CC0B204EB8401BF4A86
:103A500002EB8101C871142826DB022004EB8401EB
:103A600002EB81018871002004EB840102EB8101EB
:103A7000C87104EB840102EB8101488104EB8401ED
:103A800002EB81018873B248006868B12046B049F2
:103A90000968884708E0012D06D1002004EB840165
:103AA000AA4A02EB8101887149E104EB8400A7492D
:103AB00001EB80004089401C04EB8401A34A02EB27
:103AC0008101488104EB8400114601EB8000807B7A
:103AD000A8B904EB840001EB8000408940F2DC517E
:103AE00088420CDB012004EB840102EB8101887326
:103AF0009848006818B1204696490968884704EB41
:103B00008400924901EB8000807B08B304EB8400C1
:103B100001EB8000007CD8B904EB840001EB80004D
:103B20004089B0F5FA6F13DB012004EB8401874A6A
:103B300002EB81010874002004EB840102EB810197
:103B400048828548006818B120468349096888473B
:103B500004EB84007D4901EB8000007C00B304EBA2
:103B6000840001EB8000408A401C04EB8401774A0A
:103B700002EB8101488204EB8400114601EB8000D6
:103B8000408A64280CDB002004EB840102EB8101F5
:103B900048827148006818B120466F490968884713
:103BA000012D0CD1032004EB8401684A02EB810152
:103BB0008871002004EB840102EB8101C871BEE032
:103BC000012D7DD104EB8400604901EB8000C079B8
:103BD000401CC0B204EB84015C4A02EB8101C87155
:103BE00014286DDB002004EB840102EB8101C87115
:103BF000012004EB840102EB8101087204EB8400D4
:103C0000114601EB8000007C90B1002000E058E0FC
:103C100004EB840102EB8101887104EB840102EB67
:103C20008101087404EB840102EB8101488247E0C2
:103C300004EB8400454901EB8000807B88B10020C3
:103C400004EB8401414A02EB8101887104EB840199
:103C500002EB8101887304EB840102EB8101C873DC
:103C60002EE004EB8400394901EB8000C07B012881
:103C700013D1002004EB8401344A02EB8101C873A4
:103C800004EB840102EB8101887134480068B8B10B
:103C9000204632490968884712E0042004EB840179
:103CA0002A4A02EB81018871002004EB840102EBB7
:103CB00081018881012004EB840102EB8101C8733A
:103CC0003DE004EB8400214901EB80008089401C29
:103CD00004EB84011D4A02EB8101888165B9012052
:103CE00004EB840102EB81018871002004EB840164
:103CF00002EB8101C87121E004EB8400134901EB60
:103D000080008089962819DB002004EB84010F4A8B
:103D100002EB8101887104EB840102EB8101C8731D
:103D20000F48006818B120460D49096888470D48BA
:103D3000006818B120460B490968884700BF00BFDA
:103D4000601CC4B2042CFFF64EAE70BD1C000020F7
:103D500004000020140000201800002010000020A3
:103D6000080000200C000020014908607047000096
:103D70000C0000200149086070470000100000207E
:103D800001490860704700001400002001490860E4
:103D900070470000040000200149086070470000DF
:103DA000080000200149086070470000180000204A
:103DB00000B589B0182103A8FCF76EFA0020009026
:103DC000019002902F483049086081152E4881608B
:103DD00001210173002101754FF46021C1610020B0
:103DE00029494860052128480161FEF711F908B109
:103DF000FDF77FFF25480390002006900790049070
:103E00008DF8140003A92048FEF704F808B1FDF767
:103E100070FF00200090012001900320029069466D
:103E20001948FEF741F808B1FDF763FF0120009043
:103E30000220019069461448FEF736F808B1FDF7F4
:103E400058FF022000900320019069460E48FEF7BB
:103E50002BF808B1FDF74DFF042000900190694652
:103E60000948FEF721F808B1FDF743FF052000904F
:103E7000019069460448FEF717F808B1FDF739FFCD
:103E800009B000BD002401407C0400200002800035
:103E900008B500BF0A48406940F001000849486180
:103EA0000846406900F00100009000BF00BF0022FA
:103EB00011460B20FEF7F8FD0B20FEF7E5FD08BDCF
:103EC0000010024000B585B00020019002900390E0
:103ED000049000BF3B48806940F010003949886178
:103EE0000846806900F01000009000BF00BF00BFCE
:103EF0000846806940F0040088610846806900F047
:103F00000400009000BF00BF00BF0846806940F079
:103F1000080088610846806900F00800009000BF32
:103F200000BF012251032848FEF732FD00224FF462
:103F300000512648FEF72CFD01224FF44E71234814
:103F4000FEF726FD4FF40050019001200290002062
:103F500003900220049001A91B48FEF777FB42F270
:103F6000380001900120029000200390022004906C
:103F700001A91648FEF76AFB4FF44040019000206B
:103F800002900120039001A91048FEF75FFB4FF457
:103F900010600190002002900120039001A90C48BC
:103FA000FEF754FB4FF44070019011200290002066
:103FB00003900320049001A90448FEF747FB05B0D5
:103FC00000BD00000010024000100140000C014044
:103FD0000008014000B587B00020039004900590D0
:103FE000069001900290154815490860232048600A
:103FF00000211348816040F2E731C1600021016176
:1040000041618161FFF76CFA08B1FDF772FE4FF470
:104010008050039003A90A48FFF7F4FA08B1FDF7AE
:1040200068FE00200190029001A90548FFF716FAEA
:1040300008B1FDF75EFE07B000BD0000002C014096
:10404000F004002010B50B480B4908604FF4E13034
:104050004860002108488160C16001610C21416114
:1040600000218161C161FFF71AFC08B1FDF741FE33
:1040700010BD0000003801403805002000BFFEE7F9
:1040800000BFFEE700200CE0002106E00022064B06
:1040900003EBC0135A544A1CD1B28029F6DB421CF0
:1040A000D0B20828F0DB70477C0000202DE9F043F7
:1040B00004460D4616461F46284638E0224631E0A3
:1040C000002A2DDB7F2A2BDC002829DB3F2827DC78
:1040D0004FEAE07C00EB5C7C4FEAEC0CDFF85880A8
:1040E00008EBCC1C1CF802C003464FEAE07800EB5A
:1040F00058784FEAE808A0EBC8094FF0010808FA21
:1041000009F82CEA080C01464FEAE07800EB5878F1
:104110004FEAE808DFF8209009EBC81808F802C059
:10412000511C0AB2A1199142CADC411C08B2E9191A
:104130008142C3DCBDE8F0837C00002070B5002420
:1041400006E0002500E06D1CB5F57A7FFBD3641C0A
:10415000B4F57A7FF5D3012000F054FA012000F085
:1041600061FA70BD70B50546002411E0802121413F
:10417000294009B1012100E00021084600F052FA6F
:10418000012000F03FFA002000F03CFA601CC4B2AD
:10419000082CEBDB012000F035FA002000F032FAA9
:1041A00070BD10B5012000F03DFA012000F02AFAA0
:1041B000002000F037FA002000F024FA10BD10B5FE
:1041C000002000F02FFA012000F01CFA012000F07E
:1041D00029FA10BD10B59620FEF724FAFFF7AEFFBE
:1041E000AE2000F02FFAD52000F02CFA802000F04D
:1041F00029FAA82000F026FA3F2000F023FAD32065
:1042000000F020FA002000F01DFA402000F01AFA19
:10421000A12000F017FAC82000F014FADA2000F00C
:1042200011FA122000F00EFA812000F00BFACF20D4
:1042300000F008FAD92000F005FAF12000F002FAA7
:10424000DB2000F0FFF9302000F0FCF9A42000F0A2
:10425000F9F9A62000F0F6F98D2000F0F3F914200A
:1042600000F0F0F9AF2000F0EDF9FFF70BFF00F0E0
:10427000B5F910BD0FB470B5C2B005460E46144670
:104280004AA8019002A8019A4999FBF7F3FF002080
:104290000190234602AA3146284600F0BDF842B0FC
:1042A00070BC5DF814FB70B505460C4645F0B000D7
:1042B00000F0C8F9102141EA141000F0C3F904F02D
:1042C0000F0000F0BFF970BDF8B506460F46144662
:1042D0001D46082D0CD1A4F120000E4901EB001061
:1042E0001023082239460090304600F017F80FE0FE
:1042F000062D0DD1A4F1200000EB4000064901EB92
:1043000040000823062239460090304600F006F8A7
:10431000F8BD0000AC5200089C5800082DE9FF4F82
:1043200080460E469146DDF834B0002500244A460A
:1043300031464046039BFFF7B9FE00BF5EE0002513
:1043400058E008EB0500002852DB08EB05007F2849
:104350004EDC3046F11706EB5171C9100FB2F11760
:1043600006EB5171C910A6EBC10A002E05DA781EC2
:1043700007B20AF108000FFA80FA3819002817DB93
:104380003819072814DC3819224901EBC01008EB52
:104390000501405C04FB09511BF8011001FA0AF108
:1043A000084339191B4A02EBC11108EB0502885476
:1043B0003819401C00281BDB3819401C072817DC63
:1043C0003819401C134901EBC01008EB0501405C93
:1043D00004FB09511BF80110CAF1080211410843FE
:1043E0003919491C0B4A02EBC11108EB050288542C
:1043F000681CC5B24D45A4DB601CC4B20399481EBD
:10440000C11700EB5171012202EBE101A14296DCE0
:10441000BDE8FF8F7C0000202DE9FE4F07468A464D
:10442000144698460025AB460026CBE0605D00F0C0
:10443000800058B94FF0010B2846691C8DB2205CF2
:104440008DF8040000208DF805006BE0605D00F041
:10445000E000C02814D14FF0020B2846691C8DB231
:10446000205C8DF80400605D00B9AFE02846691C4F
:104470008DB2205C8DF8050000208DF8060051E01B
:10448000605D00F0F000E0281DD14FF0030B2846DE
:10449000691C8DB2205C8DF80400605D00B995E068
:1044A0002846691C8DB2205C8DF80500605D00B95E
:1044B0008CE02846691C8DB2205C8DF80600002037
:1044C0008DF807002EE0605D00F0F800F02826D19E
:1044D0004FF0040B2846691C8DB2205C8DF8040057
:1044E000605D00B972E02846691C8DB2205C8DF8D1
:1044F0000500605D00B969E02846691C8DB2205C4A
:104500008DF80600605D00B960E02846691C8DB238
:10451000205C8DF8070000208DF8080002E0681C80
:1045200085B24FE0BBF1010F0BD19DF80420B91902
:1045300008B243465146FFF7C7FE06EB080086B2B5
:104540003FE04FF000090EE009EB890101EB491152
:10455000204A881801A9FBF7C7FE00B90EE009F14F
:1045600001001FFA80F909EB890101EB4911194A91
:10457000881819A1FBF7B8FE0028E5D100BFB8F1F3
:10458000080F12D109EB890000EB491011490844CA
:10459000401DB919009008B210231A465146FFF782
:1045A000BDFE06F1100086B20BE0B8F1060F08D18F
:1045B000B91908B206233F225146FFF785FEB01D08
:1045C00086B200BF605D00287FF430AF00BFBDE859
:1045D000FE8F0000D65A00080000000010B500242D
:1045E0000BE000212046FFF75EFE054901EBC410F9
:1045F000802100F037F8601CC4B2082CF1DB10BD3C
:104600007C00002010B504460CB1012000E0002021
:1046100002464FF480710248FEF7BAF910BD00005F
:10462000000C014010B504460CB1012000E0002050
:1046300002464FF400710248FEF7AAF910BD0000CF
:10464000000C014010B50446FFF7ABFD7820FFF7E2
:1046500089FD0020FFF786FD2046FFF783FDFFF769
:10466000AEFD10BD70B505460E46FFF79AFD7820E9
:10467000FFF778FD4020FFF775FD002404E0285D7A
:10468000FFF770FD601CC4B2B442F8DBFFF797FD82
:1046900070BD704730B1012805D0022804D003282E
:1046A00004D102E002E001E000E000BF00BF70477B
:1046B00008B508490968C9084FF47A72B1FBF2F1EC
:1046C0004143009100BF00BF00994A1E009200299B
:1046D000F9D108BD78000020704710B5FEF764F9E5
:1046E00010BD00B593B0282109A8FBF7D5FD142112
:1046F00004A8FBF7D1FD00200090019002900390E8
:104700000220099001200D9010200E9002201090A0
:10471000002111914FF4E011129109A8FEF750FC0D
:1047200008B1FDF7E6FA0F20049002200590002062
:10473000069007900890012104A8FEF71DFB08B120
:10474000FDF7D7FA02200090800302906846FEF73A
:104750007BFA08B1FDF7CDFA13B000BD7047000039
:1047600010B50248FEF7D5FF10BD0000F004002090
:1047700010B502681C4B984208D0B0F1804F05D0AC
:104780001A4B984202D01A4B984203D122F0700281
:104790004B681A43144B984208D0B0F1804F05D0B3
:1047A000124B984202D0124B984203D122F440722D
:1047B000CB681A4322F080034C6943EA040202608A
:1047C0008B68C3620B688362074B984201D10B6907
:1047D000036301234361036903F001031BB1036910
:1047E00023F00103036110BD002C014000040040D0
:1047F0000008004030B50C46816821F47F4142EA50
:10480000032525432943816030BD0A46816821F094
:10481000700142F0070319438160704730B50B46C1
:104820001446026A056A25F001050562816921F0D6
:10483000F00141EA041122F00A021A438161026286
:1048400030BD30B50B461446026A056A25F01005E6
:104850000562816921F4704141EA043122F0A0022D
:1048600042EA03128161026230BD000070B5044665
:104870002168096921F44051E268114322681161FD
:104880002269A1681143626941EA02052168C96889
:1048900041F20C62914329432268D1602168496941
:1048A00021F44071A2691143226851612D4A2168A7
:1048B000914202D1FEF73CFB01E0FEF729FB00EB41
:1048C000C00101EB001162689200B1FBF2F100EB54
:1048D000C00202EB001263689B00B2FBF3F2642398
:1048E000B2FBF3F202EBC20303EB0212A1EB820173
:1048F000322202EB01116422B1FBF2F101F0F0016E
:1049000000EBC00202EB001263689B00B2FBF3F203
:104910006423B2FBF3F201EB021200EBC00101EBE6
:10492000001163689B00B1FBF3F100EBC00303EBE4
:1049300000136668B600B3FBF6F36426B3FBF6F328
:1049400003EBC30606EB0313A1EB8301322303EB56
:1049500001116423B1FBF3F101F00F01114422684E
:10496000916070BD0038014000BFFEE7490050EA89
:10497000C12018BF04204A0D18BF40F0010040F2CA
:10498000FF72B2EB515F08BF40F00200012808BF80
:104990000520704702480068C0F3022070470000FD
:1049A0000CED00E010B5002804DB0A07130E054AE1
:1049B000135406E00A07140E034A00F00F031B1FEE
:1049C000D45410BD00E400E018ED00E030380A28AF
:1049D00001D20120704700207047000010B5044646
:1049E00034B1012C0DD0022C13D0032C21D118E0AE
:1049F0004FF400511048FDF7C1FF01200F49087026
:104A000017E008210E48FDF7B9FF02200B49087096
:104A10000FE010210A48FDF7B1FF03200749087095
:104A200007E020210648FDF7A9FF0420034908708C
:104A300000BF00BF10BD00000010014000000020BA
:104A4000000C014030B1012805D0022804D0032811
:104A500004D102E002E001E000E000BF00BF7047C7
:104A600030B1012805D0022804D0032804D102E087
:104A700002E001E000E000BF00BF704788B0FDF732
:104A80009FFFFFF72EFEFFF71DFAFFF701FAFFF772
:104A9000A1FAFFF78DF9FFF7D5FA4148FEF776FD49
:104AA000FEF77EFFFFF796FB3E48FDF725F96420F1
:104AB000FDF7B8FD052204A93A48FDF7A3FB6EE017
:104AC000BDF8100000F066FA0022374BCDE9000176
:104AD00000F008F98146354A354B00F06FFA06467A
:104AE0000022344B00F06AFACDE9020100F0C8F868
:104AF0000446BDF8120000F04DFA064600222A4B8B
:104B000000F0F0F8294A2A4BCDE9000100F056FAEE
:104B100081460022274B00F051FACDE9020100F056
:104B2000AFF80546BDF8140000F034FA064600223E
:104B30001D4B00F0D7F8204A204BCDE9000100F0D2
:104B40003DFA814600224FF0804300F037FACDE96C
:104B5000020100F095F88046204600F02DFB18A3D6
:104B60000822CDE9000100210846FFF783FB284613
:104B700000F022FB16A30822CDE90001102100203D
:104B8000FFF778FB404600F017FB15A30822CDE99C
:104B9000000120210020FFF76DFBFFF71FFD8FE7CD
:104BA000F00400207C04002000FEAF408FC2F528F6
:104BB0005C8F0A400000264014AE47E17A140B4097
:104BC0005643435F55503A2020252E3266000000A0
:104BD0005643435F444F574E3A252E32660000003D
:104BE000564241543A20202020252E3266000000F3
:104BF00030B1012805D0022804D0032804D102E0F6
:104C000002E001E000E000BF00BF704730B10128C2
:104C100005D0022804D0032804D102E002E001E01C
:104C200000E000BF00BF704710B500290AD0087827
:104C3000002807D005487844FBF756FB002801D030
:104C4000002010BD0248784410BD00007A12000018
:104C50007212000010B500290AD00878002807D089
:104C600005487844FBF740FB002801D0002010BD28
:104C70000248784410BD00006A1200006212000071
:104C800021F00042A2F16052B2F5801F01F0004312
:104C900028BFD2F17F6C0BD95FEA001C43EAC20245
:104CA00042EB507018BF704728BF20F001007047DA
:104CB000B2F5801FBCBF184670474FEA410C1CF587
:104CC000001F02D2084600F0E8BA70B500F020FAE2
:104CD00000000089FFF7F6BF4FF00040A0F580000C
:104CE000704700002DE9C04130B4DFF8A0C23CEAB3
:104CF000111418BF3CEA131400F0EC8081EA03059C
:104D00001CEA111444EAD57418BF1CEA131500F00C
:104D1000C780A4EB05044FF0004545EAC12145EAF0
:104D2000C32341EA505143EA525304F17F7499423C
:104D300004F500344FEAC0204FEAC22208BF904277
:104D400000F09C804FEA13650FF24016765D4FEA43
:104D5000134506FB05F7C7F1807706FB07F74FEA17
:104D6000D737A7FB03687642C8F58038A7FB06CE85
:104D700038BFA8F1010807FB08E64FF0000EA6FBBC
:104D8000028CE6FB03CEDCF1000CCEF1004E38BF06
:104D9000AEF1010EA6FB0C584FF000074FF00005D6
:104DA000E6FB0E87A1FB08C6A0FB07CE16EB0E069E
:104DB00045F10005E1FB076515F1E04E7EBFA4F566
:104DC00080345FEA46066D4116F1800745F1000523
:104DD0004FEA17274FEA066647EA0567A6F1DE465F
:104DE000B6F1805F4FEA15251FD9384624F0010C33
:104DF00005EBC471BCF1FE6F01EB0C1102D8F0BCE5
:104E0000BDE8008124425CBF01F5801E9EEAC47F9C
:104E100002D4F0BCBDE80081244238D4F0BCA1F13A
:104E2000C041BDE8004100F0C1B94FEAD22242EAD8
:104E300043524FEAD323A7FB02864FEAD02040EA31
:104E4000415007FB03661EEA0E0F4FEAD12105FB16
:104E5000026658BFA6EB0056B6EB00564FEA520E5C
:104E60004EEAC37E18EB0E0E56EB530EBDD518EB73
:104E700002085E417F1C55F10005B6E74FF480152E
:104E80004FF000074FF000064FF00008ADE7F0BC10
:104E90004FF0000001F1C04101F00041BDE8008188
:104EA00011EA0C1F0CEA131500D00CE013EA0C1FDA
:104EB00000F025804FF00000F0BC81EA030101F012
:104EC0000041BDE80081F0BCBDE8004181EA03017A
:104ED00000F06CB9F0BCBDE8004170B500F018F905
:104EE000097EFC3E00F007B881EA03014FF00000A4
:104EF00001F00041704781EA030100F057B9F0BCAE
:104F0000BDE800414FF0000021497047FFFDFBF96B
:104F1000F7F5F4F2F0EEEDEBE9E8E6E4E3E1E0DEEC
:104F2000DDDBDAD8D7D5D4D3D1D0CFCDCCCBCAC85E
:104F3000C7C6C5C4C2C1C0BFBEBDBCBBBAB9B8B785
:104F4000B6B5B4B3B2B1B0AFAEADACABAAA9A8A878
:104F5000A7A6A5A4A3A3A2A1A09F9F9E9D9C9C9B46
:104F60009A999998979796959594939392919190F1
:104F70008F8F8E8E8D8C8C8B8B8A89898888878782
:104F80008685858484838382828181800000FF07F7
:104F90000000F87FB0FA80F310FA03F10AD0C3F1F1
:104FA0001D0303F580634FEA41504FEA035202EBC1
:104FB000D12170474FF0000070470000DFF848C172
:104FC00070B51CEA111E1EBF1CEA13159EEA0C0FD9
:104FD00095EA0C0F00F06F8081EA030423EA4C137A
:104FE0004EEAD47E21EA4C1141F4801143F480133F
:104FF000AE44A1FB024CA0FB0365AEF17F7E3619E7
:1050000055EB0C05A1FB034C4CF10003A0FB021C6B
:1050100016EB0C06654153F10003094218BF46F038
:10502000010613F4007F0BD14FEA03314FEA05303C
:10503000340341EA155140EA16506FF003020AE0CA
:105040004FEAC3214FEAC520F40241EA555140EA34
:1050500056506FF0020202EB2E4201EB025585EA38
:10506000CE710AD05FEA440C18BF24F0004450F11E
:10507000000041F1000120EAD47040F2FE7C62455C
:1050800000D270BDA84214BF4FF080444FF040449E
:10509000002E08BF0024BEF1806FA8BFA1F1C0415F
:1050A000BDE8704080F282804FF0000001F1C04105
:1050B00001F0004170479EEA0C0F0CEA131518BF6F
:1050C00095EA0C0F06D04FF0000081EA030E0EF0B7
:1050D000004170BD00F01CF88900013E00F007B8E7
:1050E00000F009B84FEA430C5FEA5C5C08D081EA43
:1050F000030100F05BB84FEA410C5FEA5C5CF6D15B
:105100004FF00000014970470000FF070000F87FE2
:105110000EF1020E2EF0030E5EF8046B364205D43B
:10512000012A43EB030515F5001F12D8012841EBB6
:10513000010C1CF5001F0CD80ED14FEAD17C15F5DF
:10514000001F0CEB4C0C0CF1020C08BF4CEBD37C99
:1051500004E04FF0080C01E04FEAD37C0CEB4C0567
:1051600026FA05F606F00706B6F1040C06D20EEB99
:10517000860CBDE870404CF0010C6047DFE80CF095
:10518000090B02024FF000414FF00000A1F5002191
:1051900070BD19461046012851EB010418BFD4F523
:1051A000001484BF002001F0004170BD0808A0F584
:1051B00000114FEA3101704743004FEAD30C4FEA28
:1051C0003C0C43401FBF40070CF1605113F0FE4FF1
:1051D00070471CF0006F03D100200CF000417047B5
:1051E0000CF0004343EA507010B540EACC0000F0E8
:1051F0000EF800BF000000924FEA0001FFF7D6BF93
:105200004FF000414FF00000A1F5002170470EF172
:10521000020E2EF0030E5EF8044B244204D44FEA33
:105220004102B2F17F4F11D84FEA4003B3F17F4FF3
:105230000CD80ED14FEAD07CB2F17F4F0CEB4C0C66
:105240000CF1020C08BF4CEBD17C04E04FF0080CD1
:1052500001E04FEAD17C0CEB4C0324FA03F404F098
:105260000704B4F1040C06D20EEB840CBDE8104028
:105270004CF0010C6047DFE80CF0070802024FF029
:105280000040A0F5800010BD0846420018BFD2F1D2
:10529000807288BF00F0004010BDFF2141EAD0506D
:1052A000C0057047FBF78DBCFBF7C2BD00000000D6
:1052B000000000000000000000000000000000F8F6
:1052C00000000000000000333000000000160E0057
:1052D000160E0000000000000000000040C07840F2
:1052E000C0784000043F04043F040400007088FCC0
:1052F00008300000001820FF211E0000F008F00018
:10530000E018000000211C031E211E0000F0088888
:10531000700000001E212324192721100000001610
:105320000E0000000000000000000000000000E08F
:1053300018040200000000071820400000020418B2
:10534000E00000000040201807000000404080F00E
:10535000804040000202010F01020200000000F044
:10536000000000000101011F010101000000000018
:105370000000000000B0700000000000000000000D
:105380000000000000010101010101010000000016
:1053900000000000003030000000000000000000AD
:1053A00080601804006018060100000000E010088A
:1053B0000810E000000F102020100F00001010F85F
:1053C000000000000020203F20200000007008089E
:1053D000088870000030282422213000003008881E
:1053E000884830000018202020110E000000C02046
:1053F00010F8000000070424243F240000F8088867
:10540000880808000019212020110E0000E01088F3
:1054100088180000000F112020110E000038080825
:10542000C83808000000003F000000000070880835
:1054300008887000001C222121221C0000E01008B6
:105440000810E0000000312222110F00000000C00F
:10545000C00000000000003030000000000000C06C
:10546000C0000000000080B070000000000080401C
:1054700020100800000102040810200040404040B5
:105480004040400004040404040404000008102008
:10549000408000000020100804020100007048084D
:1054A0000808F0000000003036010000C030C828B5
:1054B000E810E0000718272423140B000000C03870
:1054C000E0000000203C23020227382008F88888EA
:1054D00088700000203F202020110E00C0300808F6
:1054E00008083800071820202010080008F80808CD
:1054F0000810E000203F202020100F0008F88888C6
:10550000E8081000203F20202320180008F8888891
:10551000E8081000203F200003000000C030080809
:105520000838000007182020221E020008F8080092
:105530000008F808203F210101213F20000808F859
:10554000080800000020203F20200000000008087C
:10555000F8080800C08080807F00000008F888C03C
:1055600028180800203F20012638200008F80800ED
:1055700000000000203F20202020300008F8F80024
:10558000F8F80800203F003F003F200008F830C036
:105590000008F808203F200007183F00E010080826
:1055A0000810E0000F10202020100F0008F8080855
:1055B0000808F000203F210101010000E010080868
:1055C0000810E0000F18242438504F0008F888888D
:1055D00088887000203F2000030C3020007088086D
:1055E000080838000038202121221C00180808F87B
:1055F000080818000000203F2000000008F80800FC
:105600000008F808001F202020201F0008788800CC
:1056100000C83808000007380E010000F80800F83C
:105620000008F800033C0700073C030008186880E6
:105630008068180820302C03032C30200838C8005C
:10564000C83808000000203F2000000010080808AB
:10565000C83808002038262120201800000000FE4D
:10566000020202000000007F40404000000C30C0F9
:1056700000000000000000010638C0000002020225
:10568000FE000000004040407F00000000201008A5
:1056900004081020000000000000000000000000CE
:1056A00000000000808080808080808000020408EC
:1056B00000000000000000000000000000008080EA
:1056C000808000000019242222223F2008F8008058
:1056D00080000000003F112020110E00000000801B
:1056E00080800000000E11202020110000000080AA
:1056F0008088F800000E112020103F2000008080DC
:1057000080800000001F222222221300008080F0EF
:10571000888888180020203F20200000000080801A
:1057200080808000006B94949493600008F800805F
:1057300080800000203F210000203F2000809898BA
:10574000000000000020203F20200000000000801A
:105750009898000000C08080807F000008F800005A
:1057600080808000203F24022D302000000808F8AF
:10577000000000000020203F20200000808080806A
:1057800080808000203F20003F20003F008080007C
:105790008080000000203F2100203F20000080800A
:1057A00080800000001F202020201F0080800080BB
:1057B0008000000080FFA12020110E00000000806A
:1057C00080808000000E112020A0FF80808080005B
:1057D0008080800020203F21200001000000808088
:1057E000808080000033242424241900008080E07D
:1057F000808000000000001F20200000808000004A
:1058000000808000001F202020103F20808080002A
:105810000080808000010E3008060100808000803A
:10582000008080800F300C030C300F00008080005F
:10583000808080000020312E0E312000808080008A
:105840000080808080818E7018060100008080803A
:10585000808080000021302C2221300000000000D8
:10586000807C020200000000003F40400000000079
:10587000FF00000000000000FF0000000002027CAA
:10588000800000000040403F0000000000804040D9
:105890008000008000000000000101000000000006
:1058A00000000000002F00000000070007000014A7
:1058B0007F147F1400242A7F2A12002313086462B5
:1058C00000364955225000000007000000001C224D
:1058D0004100000041221C000014083E081400088A
:1058E000083E0808000000A060000008080808083A
:1058F000000060600000002010080402003E5149D2
:10590000453E0000427F400000426151494600216F
:1059100041454B31001814127F1000274545453989
:10592000003C4A49493000017109050300364949E4
:10593000493600064949291E00003636000000009D
:1059400056360000000814224100001414141414E8
:10595000000041221408000201510906003E495589
:10596000592E007C1211127C007F49494936003EB5
:1059700041414122007F4141221C007F4949494168
:10598000007F09090901003E4149497A007F080862
:10599000087F0000417F4100002040413F01007F1F
:1059A00008142241007F40404040007F020C027FEB
:1059B000007F0408107F003E4141413E007F0909FD
:1059C0000906003E4151215E007F09192946004623
:1059D000494949310001017F0101003F4040403FFA
:1059E000001F2040201F003F4038403F0063140844
:1059F000146300070870080700615149454300001F
:105A00007F414100000204081020000041417F0056
:105A10000004020102040040404040400000010236
:105A20000400002054545478007F4844443800381F
:105A30004444442000384444487F003854545418A7
:105A400000087E0901020018A4A4A47C007C0404C0
:105A500004780000447D4000004080847D00007F89
:105A6000102844000000417F4000007C04180478A6
:105A7000007C0804047800384444443800FC2424A2
:105A800024180018242418FC007C0804040800488A
:105A90005454542000043F444020003C4040207CAB
:105AA000001C2040201C003C4030403C004428109A
:105AB0002844001CA0A0A07C004464544C44000076
:105AC000087F41000000007F00000000417F0800C7
:105AD000000804081008E794B5000000000000006A
