:020000040800F2
:10000000980C002075020008E3350008A7310008AD
:10001000E1350008CD1C0008274200080000000060
:10002000000000000000000000000000B7400008D1
:10003000271D0008000000008F3E0008B94000089E
:100040008F0200088F0200088F0200088F0200084C
:100050008F0200088F0200088F0200088F0200083C
:100060008F0200088F0200088F020008F11C0008B0
:100070008F0200088F0200088F0200088F0200081C
:100080008F0200088F0200088F0200088F0200080C
:100090008F0200088F0200088F0200088F020008FC
:1000A0008F020008394100088F0200088F02000803
:1000B0008F0200088F0200088F0200088F020008DC
:1000C0008F0200088F0200088F0200088F020008CC
:1000D0008F0200088F0200088F0200088F020008BC
:1000E0008F0200088F0200088F02000800F002F85B
:1000F00000F0B0F80AA090E8000C82448344AAF112
:100100000107DA4501D100F0A5F8AFF2090EBAE80F
:100110000F0013F0010F18BFFB1A43F0010318473B
:100120005C5700007C5700000A444FF0000C10F8A8
:10013000013B13F0070408BF10F8014B1D1108BF65
:1001400010F8015B641E05D010F8016B641E01F805
:10015000016BF9D113F0080F1EBF10F8014BAD1C55
:100160000C1B09D16D1E58BF01F801CBFAD505E073
:1001700014F8016B01F8016B6D1EF9D59142D6D3CD
:10018000704700000023002400250026103A28BFF5
:1001900078C1FBD8520728BF30C148BF0B607047F9
:1001A0006E2900F0A381702900F0E582662904F031
:1001B000EF81652904F0EC81672904F0E981612968
:1001C00004F0E88103681B0A28BF41F08001692917
:1001D00000F05081642900F04D81752900F04A81BA
:1001E0006F2900F07282782900F0B182E92900F0CD
:1001F0000D82E42900F00A82F52900F00782EF2938
:1002000000F06F82F82900F0B0820368DB0928BF94
:1002100041F08001632900F0B387732900F0B887AB
:10022000E32900F0C387F32900F0C8870020704756
:100230001FB501F019F804000020002104F092F924
:10024000401C60600020002104F076F9E0601FBDD2
:1002500010B510BD00F0DAFF1146FFF7E9FF04F01A
:1002600037F801F0B7F803B4FFF7F2FF03BC01F071
:10027000BBF800000948804709480047FEE7FEE751
:10028000FEE7FEE7FEE7FEE7FEE7FEE7FEE7FEE746
:1002900004480549054A064B7047000035410008EF
:1002A000ED00000898060020980C00209808002017
:1002B000980800201CB50C46064B7B44694600900C
:1002C000204600F02CF904460020694600F03AF977
:1002D00020461CBD870200004FF0000200B5134607
:1002E00094469646203922BFA0E80C50A0E80C5056
:1002F000B1F12001BFF4F7AF090728BFA0E80C5007
:1003000048BF0CC05DF804EB890028BF40F8042BFF
:1003100008BF704748BF20F8022B11F0804F18BF6C
:1003200000F8012B704700004FF0013C50F8042BFF
:1003300051F8043B9A4221D1A2EB0C03934313EAF8
:10034000CC1317D150F8042B51F8043B9A4215D125
:10035000A2EB0C03934313EACC130BD150F8042BFC
:1003600051F8043B9A4209D1A2EB0C03934313EAE0
:10037000CC13DBD04FF00000704700BFD01A01BA99
:10038000B1FA81F101F0180122FA01F0CB40C1F17C
:100390002001DBB2C0B2C01A2CFA01F3D11A91438A
:1003A00011EAC311E6D1704770477047704770B5C6
:1003B000044685690068C10601D5302600E0202684
:1003C000C00707D070BDD4E9012130469047206AAC
:1003D000401C20626D1EF6D570BD70B5044685695F
:1003E0000078C00707D170BDD4E9012120209047D3
:1003F000206A401C20626D1EF6D570BD09684A0552
:1004000001D540B27047C905FCD500B270470968F4
:100410004A0501D5C0B27047C905FCD580B2704706
:1004200070B50C460546012A05D02878800600D50F
:10043000EA69002302E0012305E05B1C934202D23B
:10044000E05C0028F9D1A869E618C01AA861286AFA
:10045000184428622846FFF7AAFF04E0D5E90121E5
:1004600014F8010B9047B442F8D32846FFF7B5FFC4
:1004700070BD00002DE9F041064600241068752982
:10048000314616A510D0FFF7B9FF002802DA404226
:1004900013A507E031688A0701D512A502E04907D4
:1004A00004D511A5012401E0FFF7B1FF00210A22C4
:1004B00006F1240709E0B0FBF2FCB0FBF2F302FB0B
:1004C0001C00303078541846491C0028F3D12346CC
:1004D0002A463046BDE8F04100F061BA0000000055
:1004E0002D0000002B0000002000000011680268B1
:1004F000006A530501D508700AE0D30501D50880CC
:1005000006E0130603D5C217C1E9000200E0086047
:100510000120704701694A1C02610878704700B5E4
:100520008FB0CDE901310021059105497944CDE92C
:1005300003101146684600F029F90FB000BD000015
:10054000E5FFFFFF0A6802F8010B0A607047000030
:100550002DE9FF5F15468A460446DFF8AC80F84473
:100560000027D8E900103E46CDE9001010E03AF827
:1005700016106A4602A800F025FE411C07D021781B
:10058000890603D5E269391891420DD80744761CD3
:100590002078800602D5E069B84205DDAE42E6DB90
:1005A0003AF816000028E2D1A069C01BA0612046DD
:1005B000FFF7FDFED8E90010CDE90010002017E09C
:1005C0003AF818106A4602A800F0FCFDB0F1FF3FAF
:1005D00081460BD000250DF1080B05E0D4E901217F
:1005E0001BF8050090476D1C4D45F7D308F101003D
:1005F000B0428046E4DB206A384420622046FFF7A0
:10060000ECFEBDE8FF9F00001E5200002DE9F04106
:100610008046D21D22F007020025D2E90002F5290A
:1006200015A614D0011E72F1000106DA0023D0EBEA
:10063000030063EB020211A608E0D8F800108B0754
:1006400001D50FA602E0490701D50EA601251146E6
:10065000002408F1240704E000F05CF930323A5538
:10066000641C50EA0102F7D12B463246214640462F
:10067000BDE8F04100F093B9000000002D0000003B
:100680002B0000002000000030B4002100F1240401
:1006900008E002F00705D208303542EA4372DB0871
:1006A0006554491C52EA0305F3D10468002310A2E3
:1006B000250707D5A40600D421B1C46901230DA2E2
:1006C000641EC46130BC00F06AB910B5044621460E
:1006D0001068FFF79CFE02462046BDE8104000234C
:1006E000D2E7D21D22F00701D1E90023CCE70000B8
:1006F0000000000030000000F0B40D46018809053C
:1007000002D5214C7C4402E01F4C7C440E34002175
:1007100000F1240608E002F00F071209E75D42EA43
:1007200003721B097754491C52EA0307F3D102787C
:100730000023120704D5702D06D009B1022311340D
:100740002246F0BC00F02BB901231034F8E770B555
:1007500004460D4621461068FFF759FE0246294619
:100760002046BDE870400023C6E7D21D22F00703F3
:10077000D3E90023C0E70368126843F02003036055
:100780000823C3610023B7E7805000002DE9F05F24
:10079000894604464FF0000ADFF874B1FB44C0F804
:1007A00020A02046E1688847002874D0252806D07C
:1007B000D4E901219047206A401C2062F1E700261D
:1007C0005F462046E16888472028054607DB312D33
:1007D00005D2781910F8200C08B10643F1E7B007EC
:1007E00001D526F00406C4F81CA00027C4F818A000
:1007F0002A2D09D0284603F03BFD38B304EB8708C7
:10080000303DC8F8185019E059F8041B204604EB95
:1008100087029161E1688847012F054618D1E06998
:10082000002820DA26F020061DE0D8F8180000EB9A
:10083000800005EB40003038C8F818002046E16819
:100840008847054603F014FD0028EED1012F0AD099
:100850002E2D08D12046E16888477F1C0546022FCF
:1008600046F02006C4DBA069002803DA404246F0C7
:100870000106A061F00701D026F010066C2D0BD008
:10088000682D09D04C2D39D06A2D35D0742D35D036
:100890007A2D33D016E038E0E1682F4620468847AD
:1008A000B842054609D16C2F26D04FF48060E1682C
:1008B000064320468847054604E06C2F1AD04FF4C3
:1008C000807006430DB3A5F14100192802D82035E8
:1008D00046F400664A462946204626604E46FFF703
:1008E0005FFC80B101280BD0F61D26F0070000F157
:1008F000080956E74020E4E78020D8E70020D6E743
:1009000006F104094DE7284652E7206ABDE8F09F4A
:100910001050000030B5B0F10A024FEA900E71F1AC
:1009200000034EEA817EB0EB0E0061EB91014FEACD
:10093000101E4EEA017E10EB0E0041EB11114FEA42
:10094000102E4EEA016E10EB0E0041EB11214FEA22
:10095000104E4EEA014E10EB0E0041EB11414018D3
:1009600041F100014FEAD00040EA41704FEAD10165
:1009700010EB80054FEA810444EA907444EB0104D3
:100980006D1944EB0404521BA3414FF0000348BF10
:100990000A3200D530BD401C41F1000130BD2DE9C7
:1009A000F0470D4699469246044600F12408016836
:1009B000880604D5E06921F01001216000E00120E3
:1009C000A84201DD471B00E00027A1697A1902EB6C
:1009D0000900081AA0612078C00602D42046FFF75B
:1009E000E6FC002608E0D4E901211AF80600904749
:1009F000206A401C761C20624E45F4DB2078C0063D
:100A00000AD52046FFF7D3FC06E0D4E901213020C7
:100A10009047206A401C2062381EA7F10107F4DCD1
:100A200007E0D4E9012118F805009047206A401C2E
:100A30002062281EA5F10105F3DC2046FFF7CDFC5E
:100A40002078000602D50220BDE8F0870120FBE7F0
:100A500070472DE9FF4F0C461E464FF0FF378BB015
:100A6000D2E90001DDF860800A908A46C1F30A5598
:100A700005B93D46002108464FF00000BAF1000FCD
:100A800000F4400005DA00EB80004FF4400101EA79
:100A900050004FEA9059B9F1010F00DDB9460A98AC
:100AA00050EA4A000ED044F61050A5F2FF354543F7
:100AB0002F14B8F1000F1ED07542291E1EDDC9F19A
:100AC00000021CE0B8F1010F4FF0000001D030210E
:100AD00003E0F24305E02154401CB042FBDB30460A
:100AE0000022002121540B99C1F80880C1E900209F
:100AF0000FB0BDE8F08FBD1B6D1CDEE74A4600DA83
:100B0000694206A800F0F4FB06AB93E8070003ABCC
:100B100083E8070050460A9900F06DFC8DE8070055
:100B2000A0F500501F3800900398002D0ADD42F216
:100B30001F014A460844002303A90390684600F0B9
:100B4000D6FE09E0A0F500504A461F38002303A94D
:100B50000390684600F0E0FE8DE807000004000CFA
:100B600003D04FF0FF30410800E01046B8F1000F0D
:100B700003D00022009215461EE0751E05D4FFF733
:100B8000C9FE303262556D1EF9D5B34601220843C5
:100B900002D000227F1C04E02078302801D10022FE
:100BA0007F1E002A099784D01DE0112D07DAFFF778
:100BB000B1FE303262556D1C50EA0102F5D1084396
:100BC00002D00098C8B10EE00021681E05E0235C49
:100BD000625C63542254401E491C8142F7DBAB46E1
:100BE000A81B401E0990002004F80B000B98099ADE
:100BF000C0F80880C0E9002B7AE711264FF0000802
:100C000057E72DE9F04F88460446D21D22F0070130
:100C100091B0D1E90001CDE90A0103F005FB0246DC
:100C20000B98C00F01D02D2007E02068810701D567
:100C30002B2002E0202101EAC000032A099001D004
:100C4000072A05DB03464146204600F011FB0BE175
:100C50002078800601D5E06900E00620B8F1650F34
:100C6000814606D0B8F1660F18D0B8F1670F70D181
:100C700031E00020B9F1110F009001DB112301E0F8
:100C800009F101030AAA01A90CA8FFF7E2FEDDE9B8
:100C90000C70002609F10105834647E001204B4610
:100CA00000904FF000470AAA01A90CA8FFF7D1FE57
:100CB000DDE90DB00C995D46002610B909F101007F
:100CC0000D18B9EB050003D4C0F1FF3609F1010599
:100CD000A5EB09002BE0B9F1010F01DA4FF0010992
:100CE0000020B9F1110F0090484601DD112300E00A
:100CF00003460AAA01A90CA8FFF7ABFEDDE90C70B8
:100D00004D4600268346207800070AD4AB4500DA1A
:100D10005D4601A8012D04DD411911F8011C30299F
:100D200007D04F4502DA17F1040F04DA012082469A
:100D30000FE06D1EEEE7002F02DCED1B3E4403E0EA
:100D4000781CA84200DD7D1CB81B00F1010A4FF0A1
:100D500000472078000703D4AA4501DB4FF0FF3A93
:100D60000021B7F1004F0DF143088DF8431024D056
:100D700002202B23002F01DA7F422D230A21021E9D
:100D8000A0F1010000DC5FB197FBF1FC97FBF1F2F1
:100D900001FB1C7C17460CF1300C08F801CDEEE786
:100DA000A8F1010003702188090501D5452100E063
:100DB0006521A0F1010800F8011C09980FA9A1EB19
:100DC0000807FF1D00B10120411901EBEA70A1697C
:100DD0003844081A401EA0612078C00602D420467C
:100DE000FFF7E5FA099828B1D4E901219047206A74
:100DF000401C20622078C00622D52046FFF7D7FA93
:100E00001EE0002E04DBB34502DD01A8805D00E09A
:100E10003020D4E901219047206A401C2062761CD2
:100E2000AAF101005FEA000A0AD100F01DFAC068C9
:100E30000168405CD4E901219047206A401C20628F
:100E4000281EA5F10105DCDC07E0D4E9012118F832
:100E5000010B9047206A401C2062381EA7F1010751
:100E6000F3DC2046FFF7B9FA032011B041E6000099
:100E70002DE9F04F04460D46D21D22F0070089B03F
:100E8000D0E900974846394603F0CEF90246F80FFC
:100E900001D02D2307E02068810701D52B2302E034
:100EA000202101EAC0038DF820300BB1012000E0C1
:100EB0000020032A824601D0072A04DB2946204667
:100EC00000F0D6F93FE12078800601D40D2500E03E
:100ED000E569C7F30A560D2D49DA00214FEA175B81
:100EE00008464FF00000002F00F4400007DA00EB46
:100EF00080004FF4400100EBD07001EA60008115E2
:100F0000012901DD4FF0FF3100224FEA850CBCF1D1
:100F1000180F06D31346ACF118004FF08052C240B0
:100F200003E04FF4801323FA0CF30CF10C0CBCF12A
:100F3000200F04D3ACF1200C09FA0CF001E007FA01
:100F40000CF000294FF0004801DD18B90FE00ED178
:100F500040450CD319EB02095F4121B9404502D14C
:100F60009F4329EA0209BBEB175F00D0761C20885B
:100F7000000502D57B48784402E07A487844193865
:100F800008AA302302F80A30037C0AF10101002E7E
:100F90000AF1020A53546A4602DC4FF0300101E0C4
:100FA0004FF031014FF001088DF8001002D0A6F289
:100FB000FF3603E059EA470100D06B4E002D02DCFA
:100FC0002178090704D54FF002082E218DF8011071
:100FD000C44600210BE0C7F303433F01C35C491C37
:100FE0006D1E02F80830052908F1010801DA002D0C
:100FF000F1DC00210CE000EB1973491C1B786D1E1D
:10100000082902F808304FEA091908F1010801DA45
:10101000002DF0DC21688B0602D516E0A8F101084E
:10102000E04505DD02EB080313F8013C302BF5D059
:10103000B8F1000F09DD02EB080313F8013C2E2B79
:1010400003D1090701D4A8F10108002D05DD3E21D7
:1010500002F808106D1E08F10108407C002E02F80D
:10106000080008F1010804DA2D20764202F8080091
:1010700002E02B2002F808000A214FF47A70864221
:1010800008F101080BDB96FBF0F3303302F808306F
:1010900096FBF0F308F1010800FB136601E0642EF3
:1010A0000CDB642096FBF0F3303302F8083096FB3B
:1010B000F0F308F1010800FB136601E00A2E06DBDD
:1010C00096FBF1F0303002F8080008F1010896FBB9
:1010D000F1F001FB1060303002F80800A16908F15E
:1010E000010808EB050202EB0A00081AA06120784B
:1010F000C00602D42046FFF75AF9216A08AE01EB78
:101100000A00206204E0D4E9012116F8010B90479F
:10111000BAF1010AF7D22078C00602D52046FFF7BF
:1011200046F96E4609E016F8010B3E280FD0D4E9C7
:1011300001219047206A401C2062B8F10108F2D2D8
:101140002046FFF74AF909B00320BDE8F08F206A76
:101150002844206203E0D4E90121302090476D1E2D
:10116000EBD3F8E75A48000002FCFFFF10B54369D3
:1011700013B1AFF3008001E0FFF752F9012010BD79
:10118000127800F124010A7000224A700122EDE772
:1011900011684FF0FF32E9E710B5436913B1AFF3BF
:1011A000008001E0FFF7D4F9012010BD128800F1A2
:1011B000240182840022C2840122EDE711684FF0ED
:1011C000FF32E9E770B516460C46054600F044F8D4
:1011D000036893F80101012806D0FF2C0FD8185D91
:1011E00068B101202C7070BDD3F80701324621464A
:1011F00003F2071303442846BDE8704018474FF038
:10120000FF3070BD00487047340600207546FFF778
:10121000F9FFAE4605006946534620F007008546B3
:1012200018B020B5FFF734F8BDE820404FF00006B5
:101230004FF000074FF000084FF0000B21F00701BE
:10124000AC46ACE8C009ACE8C009ACE8C009ACE801
:10125000C0098D467047000010B500F005F8001D6C
:1012600010BD00BF01330000004870475406002045
:101270002DE9F0411F46044603260168072A01F4C0
:10128000006004DB08B116A505E016A503E008B16F
:1012900015A500E015A521F010002060A069C01E72
:1012A000A0610FB1401EA0612046FFF780F84FB14A
:1012B000D4E9012138469047206A401C2062C01CB6
:1012C000206206E0206AFAE7D4E9012115F8010B53
:1012D0009047761EF8D22046FFF77FF8BDE8F081F0
:1012E0004E414E006E616E00494E4600696E6600CA
:1012F0002DE9F047814616468AB0354878440DC836
:101300008DE80D0032487844801C03AC0DC884E899
:101310000D0041F69B300844372190FBF1F290FB21
:10132000F1F5A5F1800501FB12041B3C02D56442D6
:10133000012000E00020DFF898A080460027FA4452
:10134000AAF1BE0A0EE0E0070AD03246684607EB73
:10135000470101230AEB810100F0DEFA8DE8070066
:1013600064107F1C002CEED1194F7F44AE3F19E072
:10137000E80715D007EB04100DF1180A90E80E00ED
:101380008AE80E00C068F04201D1981908903246F0
:10139000012306A903A800F0BFFA03AB83E8070006
:1013A0006D10641C002DE3D14FF0010332466946F5
:1013B000B8F1000F03A802D000F099FA01E000F0A4
:1013C000ABFAC9E90001C9F808200AB0BDE8F08706
:1013D0006445000010B50446AFF300802046BDE828
:1013E0001040FEF740BF000001491820ABBEFEE7E9
:1013F0002600020070475FEA400C08BF91F0000F22
:101400004FEA8C234FEAC12243EA51514FEA1C5064
:1014100018BF00F5F0404FEA300018BF41F000411E
:101420005FEA6C5C00F02980BCF1FF3F08BF40F030
:1014300080407047130C06BF12044FF0100C4FF0A1
:10144000000C130E04BF12020CF1080C130F04BFA2
:1014500012010CF1040C930F04BF92000CF1020C6A
:10146000D30F04BF52000CF1010C11464FF00002E3
:10147000A0F11F00A0EB0C00704711F0004F08BF57
:10148000704731F000413FF4D5AF0B0C06BF0904A3
:101490004FF0100C4FF0000C0B0E04BF09020CF1C2
:1014A000080C0B0F04BF09010CF1040C8B0F04BFD7
:1014B00089000CF1020CCB0F04BF49000CF1010CA8
:1014C000CCF12003A0EB0C0022FA03F302FA0CF299
:1014D00041EA030100F10100704720F07F4C80EAEF
:1014E000030023F07F47ACEB070303F57C5300F0C8
:1014F000004003F1FF032DE980494FEA154B09B481
:101500004FEA144325EA0B4E24EA03480FF204265F
:1015100006EB132749083E785FEA320203FB0667B1
:10152000C7F5000707FB06F64FEA54374FEAD646E1
:1015300006F1020607FB066CCCF1005C4FEA1C4783
:101540002CEA074C07FB06F40CFB06F504EB1546EA
:101550004FEA961634BF00204FF000404FEAD137D3
:1015600006FB07FC4FEA1C4C0CFB0BF7D21B03FBE2
:101570000CF761EB07010CFB0EF7B0EB074072EBC9
:1015800017420CFB08F734BFA2EB0742B2EB07424D
:1015900061EB17414FEA0C444FEA910706FB07FC49
:1015A0004FEA1C4C0CFB0BF7B0EBC74072EB573209
:1015B00003FB0CF734BFA2EBC742B2EBC74261EBAF
:1015C00057310CFB0EF7B0EBC70072EB57720CFBF8
:1015D00008F734BFA2EBC702B2EBC70261EB577149
:1015E000039F4FEA816141EA921104EBCC044FEA78
:1015F000D1374FEA826206FB07FC42EA90124FEABB
:1016000080604FEA1C4C0CFB0BF7D21B03FB0CF762
:1016100061EB07010CFB0EF7B0EB074072EB1742D2
:101620000CFB08F734BFA2EB0742B2EB074261EBB9
:1016300017414FEA8C554FEA910704EB9C2406FBB7
:1016400007FC4FEA1C4C0CFB0BF7B0EBC74072EBEE
:10165000573203FB0CF734BFA2EBC742B2EBC742D1
:1016600061EB57310CFB0EF7B0EBC70072EB577212
:101670000CFB08F734BFA2EBC702B2EBC70261EB69
:10168000577115EB4C254FEA816141EA92114FEAFF
:1016900082624FEAD13742EA901206FB07FC44F11E
:1016A00000044FEA80604FEA1C4C0CFB0BF7D21B86
:1016B00003FB0CF761EB07010CFB0EF7B0EB0740E7
:1016C00072EB17420CFB08F734BFA2EB0742B2EBF8
:1016D000074261EB174115EB1C154FEA813141EAD6
:1016E00092414FEA823242EA90424FEA80304FEA1A
:1016F0000C7644F1000448EA03434EEA0B484FF0ED
:10170000000EB2EB080C71EB030724BF62463946AA
:101710004EEB0E0E4FF0000B0018524149414BEBBF
:101720000B0BB2EB080C71EB03077BF1000B24BF32
:10173000624639464EEB0E0E4FF0000B0018524138
:1017400049414BEB0B0BB2EB080C71EB03077BF140
:10175000000B24BF624639464EEB0E0E51EA0207DB
:1017600018BF46F0010616EB0E7655F1000254F153
:10177000000103D5BDE88901BDE80088BDE8890105
:10178000BDE80048B619524141EB0101A3F1010344
:10179000704780807F7E7D7C7B7A797877767675DE
:1017A0007473727171706F6E6E6D6C6C6B6A6A6956
:1017B0006868676666656464636362616160605FF0
:1017C0005F5E5E5D5D5C5C5B5B5A5A595958585769
:1017D00057565655555554545353525252515150D1
:1017E00050504F4F4F4E4E4D4D4D4C4C4C4B4B4B24
:1017F0004A4A4A494949484848474747474646466A
:1018000045454544444444434343434242424241A4
:101810004141002B9C4630D477002BD01CB54FEAB9
:10182000370703B44FF010004FF01001BAF1000F6A
:1018300006D0BCF1000FDCBF40F0080040F008010A
:101840004FF000000FBCBDE810400BF1010BBBF1E5
:10185000010F08BF5FEA170722BF12F1010211F161
:1018600001014FF0004143F1000300F0004043EA62
:1018700000007047F9D35708D0E746EA064613F14F
:10188000400F4FEA16461FDD13F1200FDFBF16434E
:101890000A46002120335B42BED0C3F1200746EA4E
:1018A000064602FA07F74FEA164646EA0706C3F16C
:1018B000200722FA03F201FA07F721FA03F14FF0A9
:1018C000000342EA0702A7E746EA020646EA06469E
:1018D0004FEA164646EA0106BCBF46EA0646360C03
:1018E0004FF000034FF000024FF0000194E72DE9A4
:1018F000804C9A46934670B491E8380007C831EAA4
:10190000400C48BF34EA430C03D5FFF7E6FDFFF770
:1019100080FFF0BCBDE8008C2DE9804C9A469346D0
:1019200070B491E8380007C810F0804F08BF13F07A
:10193000804F03D100F005F8FFF76BFFF0BCBDE866
:10194000008C20F07F4780EA030023F07F4C07EBF8
:101950000C03A3F57C5300F00040A3F1FE0392F0CA
:10196000000F00F0B38095F0000F00F077802DE9B4
:1019700001494FEA11404FEA144621EA004800FBB2
:1019800006FC24EA064708FB06F607FB08F800FBFE
:1019900007F718EB06484CEB164C4FEA124B18EBC6
:1019A00007484FEA15464CEB174022EA0B4E0BFB5B
:1019B00006FC25EA06470EFB06F607FB0EFE0BFBB0
:1019C00007F71EEB064E4CEB164C4FF000061EEBD5
:1019D000074E4CEB174B18EB0B0840F1000018EBCF
:1019E0000E0B58EB000840F100008F1A4FF0000179
:1019F0003CBFC943661B14BFB5EB040C00213CBFC0
:101A0000C943F61B4FEA17444EEA8E0E27EA0445F7
:101A10004FEA1C4704FB07622CEA074C05FB07F75B
:101A20000CFB05F604FB0CFC16EB074642EB1742D9
:101A300016EB0C4642EB1C421BEB060658EB02026F
:101A4000414146EA9E0601D5BDE80189B6195241D9
:101A500041EB0101A3F10103BDE801894FEA1445FF
:101A60004FEA114724EA054621EA074C05FB07F433
:101A700006FB07F70CFB06F105FB0CFC11EB07411D
:101A800044EB17444FEA124711EB0C4144EB1C4462
:101A900022EA074C05FB07F206FB07F70CFB06F6EC
:101AA00005FB0CFC16EB074642EB174216EB0C4607
:101AB00042EB1C456A1854F1000148BF7047B61943
:101AC000524141EB0101A3F10103704795F0000F72
:101AD00037D04FEA11424FEA144721EA024624EA7E
:101AE000074C02FB07F106FB07F70CFB06F402FBB1
:101AF0000CFC14EB074441EB17414FEA154714EB7C
:101B00000C4441EB1C4125EA074C02FB07F506FBA0
:101B100007F70CFB06F602FB0CFC16EB074645EB41
:101B2000174516EB0C4645EB1C42121951F100010A
:101B300048BF7047B619524141EB0101A3F10103BF
:101B400070474FEA14454FEA114724EA054621EA57
:101B5000074C05FB07F106FB07F70CFB06F24FF0FD
:101B6000000605FB0CFC12EB074241EB174112EBA0
:101B70000C4251EB1C4148BF7047921841EB0101E8
:101B8000A3F101037047000070B504460068816846
:101B9000C943C90717D1816821F00101816000F0B4
:101BA0004FFD05460AE000BF00F04AFD401B022839
:101BB00004D920688068C043C00706D020688068C8
:101BC000C043C007F0D0002070BDA06A40F01000F4
:101BD000A062E06A40F00100E062012070BD10B533
:101BE0000146406A826A12F0500F05D0006A026B0B
:101BF000BDE8104008461047816A41F400718162D7
:101C000001688968C1F3424107290CD1017B51B9B0
:101C1000816A21F480718162816AC90403D4816A76
:101C200041F00101816200F08FF910BD10B5406AEA
:101C3000816A41F040018162C16A41F00401C162E0
:101C400000F084F910BD10B5406A00F07EF910BDB7
:101C5000F8B500260446009600688168C943C907A4
:101C60002DD0816841F00101816016481649006855
:101C7000B0FBF1F000E0401E00900028FBD100F026
:101C8000DFFC054616E000BF00F0DAFC401B02282E
:101C900010D920688068C043C0070BD0A06A40F00C
:101CA0001000A062E06A40F00100E06284F8246065
:101CB0000120F8BD20688068C043C007E4D100203F
:101CC000F8BD00003401002040420F00FEE7000094
:101CD00002464FF40061014800F0ADBC000C014029
:101CE00002464FF48051014800F0A5BC000C0140B1
:101CF000014800F089BA00006801002030B590F872
:101D000040500124AC40C56B6C600468636043685C
:101D1000102B036803D099600068C26030BD9A60E0
:101D20000068C16030BD704710B50020FFF7D0FFDC
:101D3000002001F0ADFC40F00301002001F024FD83
:101D4000BDE810400120FFF7C3BF10B50020FFF72A
:101D5000BFFF002001F09CFC20F0010040F00201D8
:101D6000002001F011FDBDE810400120FFF7B0BFD9
:101D700072B6FEE7F8B500250446009590F82400F9
:101D800001280BD0012084F824002046FFF7FCFE38
:101D90002046FFF75DFF060002D050E00220F8BDAC
:101DA000A06A20F4885040F00200A062022000F0F7
:101DB000E5FC25490968B1FBF0F0400000E0401E59
:101DC00000900028FBD12068816841F00801816003
:101DD00000F036FC074608E000F032FCC01B0A2881
:101DE00003D920688068000715D420688068000740
:101DF000F2D42068816841F00401816000F020FC89
:101E0000074612E000F01CFCC01B0A280DD9206810
:101E10008068400709D5A06A20F0020040F0100059
:101E2000A06284F824500120F8BD20688068400733
:101E3000E8D4A06A20F0020040F00100A06284F81B
:101E400024503046F8BD000034010020F8B50024CD
:101E5000009490F824202546012A12D0012280F80F
:101E600024204A681F23072A0DD20668776B521E6A
:101E700002EB820293409F430B6893401F437763BA
:101E800019E00220F8BD06680D2A0AD2376BD21F6E
:101E900002EB820293409F430B6893401F433763DA
:101EA00009E0F76A0D3A02EB820293409F430B6808
:101EB00093401F43F7620A68072306680A2A0AD379
:101EC000F7680A3A02EB420293409F438B689340C3
:101ED0001F43F76008E0376902EB420293409F43DB
:101EE0008B6893401F4337610A68102A01D0112A7A
:101EF00020D1124B02689A4217D193681B0219D461
:101F0000936843F4000393600968102912D10C49C7
:101F10000C4A0968B1FBF2F101EB8101490000E0D4
:101F2000491E00910029FBD104E0816A41F02001A3
:101F30008162012480F824502046F8BD002401402D
:101F40003401002040420F00704770477047000086
:101F50002DE9F0414FF0000704003D467ED0A06A15
:101F6000002628B9E66284F82460204600F07EF856
:101F70002046FFF709FEA16AC90600D420B1A06A75
:101F800040F01000A06269E0A16A21F4885141F09C
:101F90000201A1626268E169237B0A4347EA4301C7
:101FA0000A43A1684FF48077B94209D0012907D0CC
:101FB0005FF0000194F814C0BCF1010F02D00AE0F8
:101FC0003946F7E7F3B1A36A43F02003A362E36A5B
:101FD00043F00103E3622368D3F804C02CF4694C96
:101FE0004CEA010CC3F804C021688B68DFF870C0AC
:101FF00003EA0C0313438B60A168B9420BD001299B
:1020000009D00CE0DFF85CC0A3690CEB43330B4351
:1020100043F40061DFE7218A0D05A5F580152168ED
:10202000CB6A23F470032B43CB62216889680E4B83
:102030001940914208D1E662A16A21F0020141F003
:102040000101A162BDE8F081A06A20F0020040F029
:102050001000A062E06A40F00100E0620120F1E7B8
:10206000FDF7E1FF00E0FFFFFE0E1FFF70B586B039
:1020700000250646009501950295039500681A49CA
:1020800088422ED11949886940F4007088618869B6
:1020900000F400700490886940F004008861886949
:1020A000694600F0040004900F2000900320019086
:1020B0000F4800F0CBF9104C0E48C4E90005802011
:1020C000C4E9025040002061800060612020C4E922
:1020D0000605204600F042F908B1FFF749FE3462D8
:1020E000666206B070BD000000240140001002408E
:1020F0000008014008000240680100202DE9F04777
:10210000894604463B4900683B4F0E1D9046884275
:1021100001D0B84207D1306810F4702F03D00125E8
:102120002846BDE8F08794F8240001280CD001204F
:1021300084F824002046FFF78BFD05004FF00000D7
:1021400004D084F82400EBE70220EAE7A16A40F615
:102150000162914341F48071A1622168B94218D1B2
:10216000326812F4702F14D0A16A41F48011A16278
:102170003168490505D5A16A21F4005141F4805127
:10218000A162A16AC9040AD5E16A21F00601E162EF
:1021900006E0A26A22F48012A2624968E9E7E062DE
:1021A00084F82400216A15488862216A1448C862AC
:1021B000216A1448086321686FF0020008602068F3
:1021C000816841F480718160216843464A464C3100
:1021D000206A00F0F1F820688168C1F342410729C4
:1021E000816803D041F48011816099E741F4A00136
:1021F000FAE700000024014000280140DF1B00082E
:10220000471C00082D1C00082DE9F05FC16B0C680D
:1022100001680B68D0F840C0042202FA0CF2494D64
:10222000DFF824A1494E4A4FDFF828B1DFF828E152
:1022300022422CD05A072AD50A68920603D40A688B
:1022400022F004020A600168A94201D1042219E0C7
:10225000514501D1402215E0B14202D14FF48062D4
:1022600010E0B94202D14FF480420BE0594502D14F
:102270004FF4802206E0714502D14FF4800201E064
:102280004FF080622F4908394A60C16A3BE04FF045
:10229000020808FA0CF818EA040F4FF000094FF092
:1022A000010235D05FEA837832D50B689B0605D4EE
:1022B0000B6823F00A030B6080F821200168A94213
:1022C00001D1022219E0514501D1202215E0B1428D
:1022D00002D14FF4007210E0B94202D14FF4005223
:1022E0000BE0594502D14FF4003206E0714502D1AE
:1022F0004FF4001201E04FF00072124908394A60B1
:1023000080F82090816A00291AD0BDE8F05F084764
:10231000082505FA0CF5254212D01B0710D50B68CD
:1023200023F00E030B6090F84010C36B02FA01F12A
:102330005960826380F8212080F82090016BE2E7E9
:10234000BDE8F09F080002401C000240300002403F
:1023500044000240580002406C00024030B528B3EF
:1023600008C8134914221944B1FBF2F18900C16372
:1023700010498163022141771A6843F6F0718A435C
:10238000D0E900142143D0E902452C4321430469DC
:102390002143446921438469214311431960002189
:1023A0004163012242770177084630BD012030BDEC
:1023B000F8FFFDBF0000024070B5044690F8200011
:1023C000002501280CD0012084F8200094F8216019
:1023D0000020012E06D084F820000225284670BD7A
:1023E000022070BD022684F82160A0632068066880
:1023F00026F0010606602046FFF780FCE06A002810
:102400002068016802D041F00E0106E021F00401CD
:1024100001602068016841F00A01016020680168DC
:1024200041F001010160D9E770B5044600F008F9F8
:102430000546601C02D004480078044400F000F90E
:10244000401BA042FAD370BD280100202DE9F84FAF
:10245000DFF8B8910024A9F1040B23460F2709F1F6
:10246000040AABF1040EC9E00125A5402A40AA42A6
:102470007DD1674ED1F804C0ACEB0608B44532D02C
:1024800014DCBCF1030F3AD009DCBCF1000F2AD0F8
:10249000BCF1010F1CD0BCF1020F31D11DE0BCF129
:1024A000110F17D0BCF1120F2AD119E0B8F5881F0F
:1024B00019D006DCB8F5803F15D0B8F5801F1FD1C4
:1024C00011E0B8F5001F0ED0B8F5041F18D10AE0CE
:1024D000CB6815E0CB681B1D12E0CB6808330FE01A
:1024E000CB680C330CE08B682BB1012B4FF0080349
:1024F00003D0456104E0042302E0056100E000230D
:10250000FF2A01D8064601E000F104064FEA8405DF
:1025100001D9A5F12005D6F8008007FA05FC28EAC4
:102520000C0803FA05F548EA0508C6F800804D686E
:10253000ED0062D5374DAE6946F00106AE61AD697A
:1025400024F0030605F001050095334D06EB050C5C
:10255000DCF80850A607360F07FA06F825EA080542
:10256000DFF8B880404503D14FF0000817E044E0A1
:10257000DFF8AC80404502D14FF001080FE0DFF8F2
:10258000A480404502D14FF0020808E0DFF89880AF
:10259000404502D14FF0030801E04FF0040808FA6B
:1025A00006F848EA0508CCF808804D68D9F80060BC
:1025B000ED024D4601D5164300E096432E604D686E
:1025C000DAF80060AD02554601D5164300E09643A7
:1025D0002E604D68DBF80060AD035D4601D5164303
:1025E00000E096432E604D68DEF80060ED0375460E
:1025F00001D5164300E096432E60641C0D682A4600
:10260000E5407FF431AFBDE8F88F000008040140D9
:1026100000001110001002400000014000080140BD
:10262000000C014000100140001401408068084087
:1026300000D0012070470AB1016170470904FBE72F
:102640000148806870470000280100200248816826
:10265000027811448160704728010020074810B5B6
:10266000016841F010010160032000F075F80F20AF
:1026700000F006F800F024F8002010BD0020024011
:1026800070B50D4D04464FF47A712878B1FBF0F027
:102690000A490968B1FBF0F000F094FB48B9102C2E
:1026A00007D200222146501E00F036F800206C6050
:1026B00070BD012070BD0000280100203401002001
:1026C0000C4808B5816941F001018161816901F01F
:1026D00001010091C16941F08051C161C06900F000
:1026E000805000900448416821F0E06141F00071A1
:1026F000416008BD0010024000000140002809DBD5
:1027000000F01F02012191404009800000F1E0200B
:10271000C0F8001170470000F0B40E4B1B680C4667
:10272000C3F30223C3F10705042D00D90425191DA5
:10273000072901D2002300E0DB1E012606FA05F17D
:10274000491E214099409E40761E16403143F0BC00
:1027500001F07EBD0CED00E0064900F007020868BC
:102760004FF6FF03184040EA0220034A1043086076
:10277000704700000CED00E00000FA0510B50146BE
:102780000020234C012922D0022939D010291DD143
:1027900061682268D20119D51E48C1F38342C9037A
:1027A000805C0AD561681B4AC1F34041921E515CAE
:1027B000194AB2FBF1F1484301E018494843616806
:1027C000490203D440000321B0FBF1F010BD226A9E
:1027D000C2F30121012903D1920701D5C80310BD1D
:1027E000022905D1626A920702D549F6404010BD20
:1027F0000329FCD121688903F9D54FF2244010BD8B
:1028000000F01AF96168C1F38131491C4900DBE726
:10281000001002405657000800127A0000093D00DF
:102820002DE9F84305460078354CC00754D0E069DF
:102830000026C00008D4E06940F08050E061E06903
:10284000012600F0805000902E480168C90512D47E
:102850000168804641F480710160FFF7F1FE074690
:1028600005E000BFFFF7ECFEC01B642823D8D8F8B2
:102870000000C005F6D5206A10F4407021D0A98868
:1028800001F4407181421CD0206A1F49012220F4CA
:1028900040700A6000220A602062C00711D0FFF772
:1028A000CFFE074641F2883808E000BFFFF7C8FEB8
:1028B000C11B414502D90320BDE8F883206A800787
:1028C000F4D5206A696820F44070084320621EB184
:1028D000E06920F08050E0612878800705D56068C5
:1028E000A96820F44040084360602878C00605D5F8
:1028F0006068E96820F48000084360600020DBE73E
:102900000010024000700040400442422DE9F047B0
:102910000F46050061D0434E306800F00700B84212
:1029200009D2306820F0070038433060306800F08A
:102930000700B84251D128683B4C810712D54007A7
:1029400003D5606840F4E06060602878000703D534
:10295000606840F4605060606068A96820F0F00032
:10296000084360602878C00728D06868012810D024
:102970002168022810D0890700292EDA616821F029
:10298000030101436160FFF75BFE804641F2883935
:102990000DE021688903EFE78901EDE7FFF750FEBD
:1029A000A0EB0801494502D90320BDE8F087606823
:1029B000696800F00C00B0EB810FEFD1306800F0D7
:1029C0000700B8420BD9306820F007003843306068
:1029D000306800F00700B84201D00120E5E7287810
:1029E000400705D56068E96820F4E060084360604E
:1029F0002878000706D56068296920F4605040EA0D
:102A0000C100606000F028F86168084AC1F3031152
:102A1000515CC8400649086006480068FFF730FE70
:102A20000020C2E700200240001002406657000864
:102A3000340100202C010020044805490068496841
:102A4000044AC1F3C221515CC840704734010020E0
:102A500000100240765700080E4A51680E4801F0F7
:102A60000C03042B11D0082B0FD10C48C1F3834366
:102A7000C903C05C0AD55168084AC1F34041921E9F
:102A8000515C054A5043B0FBF1F07047044948439C
:102A9000704700000010024000127A0044570008FE
:102AA00000093D002DE9F84F040070D02078C04D9A
:102AB000C00749D06868C0F38100012807D0686862
:102AC000C0F38100022809D16868C00306D52868D0
:102AD000800339D560680028E7D035E06068B0F53C
:102AE000803F0BD010B1B0F5A02F11D0286820F492
:102AF00080302860286820F4802002E0286840F4B4
:102B000080302860606890B1FFF79AFD06460AE0C1
:102B1000286840F480202860F0E700BFFFF790FDB0
:102B2000801B642873D828688003F7D50CE0FFF772
:102B300087FD064605E000BFFFF782FD801B642885
:102B4000F0D828688003F7D420789A4E80074FF099
:102B500001094FF0000839D5686810F00C0F07D054
:102B60006868C0F38100022809D16868C00306D4F0
:102B70002868800714D52069012808D110E0206951
:102B8000B0B1C6F80090FFF75BFD074605E00AE12B
:102B9000FFF756FDC01B0228C4D828688007F7D568
:102BA0002868616920F0F80040EAC10028600DE063
:102BB000C6F80080FFF744FD074604E0FFF740FD3C
:102BC000C01B022823D828688007F7D42078000784
:102BD0002CD57948A169D9B1C0F80090FFF730FD34
:102BE000074604E0FFF72CFDC01B02280FD8686AD7
:102BF0008007F7D571484FF4FA510068B0FBF1F047
:102C0000009000BF0098411E0091FAD20EE080E0D3
:102C1000C0F80080FFF714FD074604E0FFF710FD41
:102C2000C01B022875D8686A8007F7D4207840074F
:102C300060D5E8690027C00008D4E86940F08050FA
:102C4000E861E869012700F0805000905C48016865
:102C5000C90513D40168834641F480710160FFF710
:102C6000EFFC824606E000BFFFF7EAFCA0EB0A009B
:102C700064284ED8DBF80000C005F5D5E0680128CF
:102C80000AD008B1052813D0286A20F00100286274
:102C9000286A20F0040002E0286A40F0010028625F
:102CA000E06841F2883B98B1FFF7CAFC82460BE02E
:102CB000286A40F004002862EEE700BFFFF7C0FC7E
:102CC000A0EB0A0159455AD8286A8007F6D50CE0CE
:102CD000FFF7B6FC824605E0FFF7B2FCA0EB0A0165
:102CE00059454CD8286A8007F6D41FB1E86920F00E
:102CF0008050E861E06988B36968C1F38101022905
:102D000044D00228C6F8608004D0FFF799FC04463E
:102D100038E034E0FFF794FC074604E0FFF790FC4E
:102D2000C01B02282BD828688001F7D4206AB0F590
:102D3000803F05D16868A16820F4003008436860CE
:102D4000D4E908010843696821F4741108436860F4
:102D5000C6F86090FFF774FC044606E025E000BF6B
:102D6000FFF76EFC001B022809D828688001F7D500
:102D70001BE000BFFFF764FC001B022802D9032000
:102D8000BDE8F88F28688001F4D40EE00128F7D060
:102D90006868226A00F48031914204D1616A00F4CB
:102DA0007010884201D00120EAE70020E8E7000027
:102DB00000100240000042428004424234010020E0
:102DC0000070004010B5401EB0F1807F01D301209B
:102DD00010BD4FF0E02460610F21601701F038FA58
:102DE0000020A06107202061002010BD70477047BF
:102DF00070B590F83C20012A26D0012480F83C4090
:102E0000022280F83D2003685A689D6822F070060F
:102E10000A6832435A600D4B02689A4208D0B2F1F8
:102E2000804F05D00A4B9A4202D00A4B9A4204D1F5
:102E3000496825F080031943916080F83D400021E6
:102E400080F83C10084670BD022070BD002C014087
:102E5000000400400008004010B5040003D094F8BE
:102E60003D0010B107E0012010BD002084F83C00B7
:102E7000204600F01FF8022084F83D00211D206844
:102E800001F060F9012084F8460084F83E0084F8DF
:102E90003F0084F8400084F8410084F8420084F840
:102EA000430084F8440084F8450084F83D00002085
:102EB00010BD000008B500680B49884212D10B48CC
:102EC000816941F4006181618069002200F4006041
:102ED000009011461920FFF71FFCBDE8084019209B
:102EE000FFF70CBC08BD0000002C014000100240A0
:102EF00090F83D10012901D001207047022180F88F
:102F00003D100168CA6842F00102CA6000680B49BE
:102F1000884208D0B0F1804F05D00949884202D0DC
:102F20000849884204D1816801F00701062903D0CD
:102F3000016841F00101016000207047002C014050
:102F4000000400400008004070B5044690F83C00C2
:102F50000025012817D0012684F83C60022084F85F
:102F60003D002068826822F0770222F47F4282606E
:102F70000868502838D00DDC20284FD005DC90B3ED
:102F8000102811D14AE0022070BD302846D04028D8
:102F90000AD13BE060282FD070280DD0B0F5805FBB
:102FA00003D0B0F5005F12D0012584F83D60002009
:102FB00084F83C00284670BDCB68D1E90121206827
:102FC00001F0FCF82068816841F0770109E0CB68E6
:102FD000D1E90121206801F0F1F82068816841F40D
:102FE00080418160E1E719E0CA684968206801F022
:102FF000F7F85021206806E0CA684968206801F0A7
:1030000000F96021206801F0E3F8CEE7CA6849685A
:10301000206801F0E5F840212068F4E722680146C5
:103020001046F0E770472DE9F04104460068C66895
:1030300005694FF00007A90713D5B10711D5F91E8F
:10304000016101202077206880698007204602D036
:10305000FFF7E8FF04E000F07EF8204600F07CF87F
:103060002777680716D5700714D521686FF004001C
:103070000861022020772068806910F4407F204694
:1030800002D0FFF7CFFF04E000F065F8204600F023
:1030900063F82777280715D5300713D521686FF017
:1030A00008000861042020772068C0698007204656
:1030B00002D0FFF7B7FF04E000F04DF8204600F023
:1030C0004BF82777E80616D5F00614D521686FF07F
:1030D00010000861082020772068C06910F4407F44
:1030E000204602D0FFF79EFF04E000F034F82046AF
:1030F00000F032F82777E80708D0F00706D02168FB
:103100006FF001000861204600F028F8280608D575
:10311000300606D521686FF0800008612046FFF771
:1031200065FE680608D5700606D521686FF0400078
:103130000861204600F036F8A8060AD5B00608D582
:1031400021686FF0200008612046BDE8F041FFF7DC
:103150004EBEBDE8F08170477047000010B50068B2
:103160000E49884218D100F063F80D480023818889
:10317000491C89B28180C288521C94B20122C48049
:10318000642C01D1C3804270B1F57A7F04D1838071
:1031900082700178491C017010BD0000002C0140B4
:1031A000000000207047FEE75F2801DD64207047C3
:1031B00010F15F0F02DA6FF063007047011D0929FB
:1031C00001D20020704740B2704700000C2801D3A4
:1031D0000020704700EB80010348002200EB8101D2
:1031E000087A0A72704700002800002010B50A48CB
:1031F00000F0E8F8094800F0EBF8094800F0D0F8D2
:10320000084800F0D3F8084800F0D6F8BDE81040B0
:10321000064800F0E3B80000913E0008354500087C
:1032200081420008CD420008CF420008374500081F
:103230002DE9F047594F00264FF0010AB046A7F19B
:10324000180900BF06EB860007EB800457F8200042
:10325000A188FFF7EBF90546A07905280CD2DFE835
:1032600000F0030820587F00002D05D184F806A047
:103270004CE015B1012D11D089E0E079401CC0B2BD
:10328000E07114280CD30220A07184F80780A4F800
:103290000A8084F80E80D9F8001075E084F8068062
:1032A00075E06089401C80B26081A17B61B940F209
:1032B000DC51884217D384F80EA0D9F8101019B148
:1032C00030468847A07B70B1207C70B96089B0F52A
:1032D000FA6F17D384F810A0A4F81280D9F814104C
:1032E00019B130468847207C60B1608A401C80B2AA
:1032F0006082642806D3A4F81280D9F8141009B1AA
:1033000030468847012D42D10320A07184F8078000
:103310003DE0012D3BD1E079401CC0B2E0711428A2
:1033200035D384F8078084F808A0227C40465146B3
:103330001AB1A0712074608229E0A27B1AB1A07139
:10334000A073E07323E0E27B012A04D00422A2717F
:10335000A081E1731BE0E073A071D9F80C1013E0B9
:10336000A089401C80B2A081002D3FF47FAF962839
:103370000DD384F8068084F80F80D9F804104C46E9
:1033800009B130468847A16809B130468847761CA4
:10339000F6B20C2EFFF456AFBDE8F08728000020EF
:1033A0000149886070470000100000200149C86092
:1033B00070470000100000200149086170470000BC
:1033C0001000002001490860704700001000002034
:1033D0000149486070470000100000200149486121
:1033E00070470000100000204FF480410148FFF7B3
:1033F0001DB90000000C014002464FF40041014895
:10340000FFF719B9000C0140FEB500241F480094D5
:1034100001941D490294016089158160012505739D
:103420000475042606614FF460214460C161FEF713
:103430008FFD08B1FEF79CFC8DE8700069461348CB
:10344000FEF704FD08B1FEF793FC0224CDE9005419
:1034500069460E48FEF7FAFC08B1FEF789FC0094B5
:103460000324694609480194FEF7F0FC08B1FEF711
:103470007FFCCDE9004669460448FEF7E7FC0028DA
:1034800001D0FEF775FCFEBD00240140380100208C
:10349000094808B5416941F00101416140690022D4
:1034A00000F00100009011460B20FFF735F9BDE850
:1034B00008400B20FFF722B90010024070B586B01B
:1034C000002429480094019402940394816941F0F6
:1034D00020018161816901F020010491816941F03D
:1034E00004018161816901F004010491816941F065
:1034F0000801816180691D4E00F0080004900022DF
:103500004FF428413046FFF796F801224FF49851C6
:103510003046FFF790F841F6F00001258DE83100C4
:1035200069461348FEF792FF44F267408DE8310088
:1035300069463046FEF78AFF4FF438400090CDE9E7
:1035400001540324694630460394FEF77FFF2002AE
:10355000009011200394CDE9010569463046FEF73D
:1035600075FF06B070BD000000100240000C014065
:103570000008014010B586B000241848009401945A
:103580000294039404941449059401604721C0E90E
:10359000011440F2E731C0E903148021C0E905417C
:1035A000FFF75AFC08B1FEF7E3FB4FF480500090A0
:1035B00069460A48FFF7C8FC08B1FEF7D9FB049436
:1035C00004A906480594FFF713FC002801D0FEF774
:1035D000CFFB06B010BD0000002C0140AC01002064
:1035E000FEE7FEE710B50020FEF77AFBE22000F0D0
:1035F00045FDBDE810400120FEF772BB10B500206C
:10360000FEF76EFBE12000F039FDBDE8104001201F
:10361000FEF766BB10B50020FEF75AFB002000F055
:1036200025FD0120FEF75CFB0821002000F0ACF82E
:103630003F21012000F0A8F80121022000F0A4F8A9
:103640000321084600F0A0F80F21042000F09CF8A8
:103650000221052000F098F80E21062000F094F8D1
:1036600005220A490A2000F0A1F82021112000F0CB
:103670008BF8FFF7C3FFFFF7B5FF7021072000F0BD
:1036800083F8BDE81040FEF74FBB00001D0100208D
:1036900010B504460020FEF723FB204600F0EEFCA8
:1036A000FF2000F0EBFC04460120FEF719FB20464A
:1036B00010BD000070B50020FEF712FB612000F085
:1036C000DDFC074D0024FF2000F0D8FC2855641CC9
:1036D000E4B2202CF7D3BDE870400120FEF700BB18
:1036E0001402002010B50020FEF7FAFAFF2000F0C7
:1036F000C5FC04460120FEF7F3FA204610BD10B5C4
:10370000FFF7F0FF044640060AD5FFF7D3FF44F069
:103710004001072000F038F8FFF764FF012010BDDA
:10372000002010BD70B505221649102000F03EF8AB
:10373000052214490A2000F039F800F04FF8FEF78E
:1037400004FB002442F21076FFF7CCFF054680060A
:1037500007D4E80603D4641CA4B2B442F4D9FFF73A
:1037600059FF2946072000F00FF8FFF747FF0549EA
:103770000522491D0A2000F019F8BDE87040FEF747
:10378000D3BA00001801002070B504460D46002091
:10379000FEF7A6FA44F0200000F070FC284600F086
:1037A0006DFCBDE870400120FEF79ABA70B5044682
:1037B00015460E460020FEF793FA44F0200000F074
:1037C0005DFC002403E0305D00F058FC641CAC425A
:1037D000F9DBBDE870400120FEF782BA70B5002029
:1037E000FEF77EFAA02000F049FC074D0024285D7A
:1037F00000F044FC641CE4B2202CF8D3BDE8704017
:103800000120FEF76DBA0000F401002010B5002180
:10381000074C0A46002004EBC1131A54401CC0B2E6
:103820008028FAD3491CC9B20829F3D310BD00007F
:1038300034020020F0B50B4424E0044685181DE056
:103840007F2C19D8002917DB3F2915DCCE1701EB97
:1038500056764FEAE60C0D4F26F0070607EBCC171D
:103860002744A1EB060E97F800C0012606FA0EF6D3
:103870002CEA060C87F800C0641C24B2A542DFDCE9
:10388000491C09B28B42D8DCF0BD00003402002094
:1038900010B500204FF47A720021491C9142FCD3EC
:1038A000401C9042F8D3012000F0B0FABDE810406F
:1038B000012000F0B7BA70B500240646802525FA2D
:1038C00004F0304000D0012000F0ACFA012000F0FC
:1038D0009DFA002000F09AFA641CE4B2082CEED3A2
:1038E000012000F093FABDE87040002000F08EBA8D
:1038F00010B5012000F096FA012000F087FA0020B0
:1039000000F090FABDE81040002000F07FBA10B53A
:10391000002000F087FA012000F078FABDE810409E
:10392000012000F07FBA10B59620FEF77DFDFFF76D
:10393000AFFFAE2000F082FAD52000F07FFA8020A1
:1039400000F07CFAA82000F079FA3F2000F076FA27
:10395000D32000F073FA002000F070FA402000F04D
:103960006DFAA12000F06AFAC82000F067FADA20A8
:1039700000F064FA122000F061FA812000F05EFA93
:10398000CF2000F05BFAD92000F058FAF12000F0C7
:1039900055FADB2000F052FA302000F04FFAA42054
:1039A00000F04CFAA62000F049FA8D2000F046FA0B
:1039B000142000F043FAAF2000F040FAFFF726FF92
:1039C000BDE8104000F0DEB90FB470B5C0B01446C9
:1039D0000D46064648AA68464799FCF76BFC234605
:1039E0006A462946304600F01BF940B070BC5DF8CD
:1039F00014FB10B50C4640F0B00000F01FFA102088
:103A000040EA141000F01AFA04F00F00BDE810406C
:103A100000F014BA08B5082B0DD0062B0AD10A4BBA
:103A200002EB420203EB4202C03A00920823062254
:103A300000F098F808BD054B03EB0212A2F50072E6
:103A4000102300920822F3E7884B000898450008ED
:103A50002DE9FC5F002490468B4682462546DFF820
:103A60007490019430E001A90855641CE4B2032C61
:103A700028D30024264606E0384601A9FCF754FC6A
:103A800058B1761CF6B2C6EBC60109EB81000746B9
:103A900011A1FCF749FC0028EED1681C0321B0FB02
:103AA000F1F000EB40010AEB8100C6EBC60209EB26
:103AB0008201091D0C380C23009100B21A465946A8
:103AC00000F050F86D1CEDB218F805000028CAD1BE
:103AD000BDE8FC9FD2520008000000002DE9FC5F09
:103AE000002490468B4682462546DFF8709001946C
:103AF0002EE001A90855641CE4B2032C26D300244F
:103B0000264606E0384601A9FCF70EFC58B1761CA3
:103B1000F6B206EBC60109EB8100074610A1FCF7DF
:103B200003FC0028EED1681C0321B0FBF1F10AEB85
:103B3000011006EBC60209EB8201091D10381023A3
:103B4000009100B21A46594600F00CF86D1CEDB217
:103B500018F805000028CCD1BDE8FC9FC24D000834
:103B6000000000002DE9F04F1F4616460D46824624
:103B70000024FFF75FFE7F1EF81707EB507001214E
:103B8000DFF898B001EBE00743E000203DE000BF24
:103B90000AEB00037F2B36D8E91705EB5171CA10E9
:103BA00021F00701691A002D03DA521E083112B202
:103BB00009B202EB0409B9F1070F0ED8099A04FB08
:103BC00006F802440BEBC91E18F802201EF803C0C9
:103BD0008A404CEA020C0EF803C009F10102072AE0
:103BE00011D80BEBC91202EB0308099A04FB06FC7F
:103BF000024498F880301CF80220C1F10801CA4044
:103C0000134388F88030401CC0B2B042C0D3641C5B
:103C1000E4B2A742B9DCBDE8F08F00003402002016
:103C20002DE9FF4F002483B09B4690462546A246CF
:103C3000DFF848919AE0100610D403988DF804201C
:103C4000641C2844A4B28DF805A000B25B46049918
:103C5000FFF7E0FE05EB0B0085B287E00620B0EB36
:103C6000521F0ED1641CA0B28DF8042018F8001069
:103C7000002970D08DF80510401C84B28DF806A084
:103C80003CE00E20B0EB121F16D1641CA0B28DF8E0
:103C9000042018F8001000296DD0401C80B28DF867
:103CA000051018F80010002965D08DF80610401C8A
:103CB00084B28DF807A021E01E20B0EBD20F1FD1F7
:103CC000641CA0B28DF8042018F80010002952D00E
:103CD000401C80B28DF8051018F8001000294AD059
:103CE000401C80B28DF8061018F80010002942D050
:103CF000401C8DF8071084B28DF808A0002609E05A
:103D0000641CA4B232E0384601A9FCF70DFB58B19F
:103D1000761CB6B206EBC60109EB8100074618A176
:103D2000FCF702FB0028EED1BBF1080F03D0BBF17A
:103D3000060F1BD110E006EBC60109EB8100001D48
:103D4000009003981023284400B21A460499FFF704
:103D500009FF103509E00EE003980623284400B25D
:103D60003F220499FFF756FEAD1DADB218F80420AE
:103D7000002A7FF460AF07B0BDE8F08FC24D0008A5
:103D80000000000070B5084D002400212046FFF718
:103D900030FE05EBC410802100F061F8641CE4B231
:103DA000082CF2D370BD0000340200202DE9F04150
:103DB0000646C81701EB5070C410C8189046401E44
:103DC000C21700EB5270012202EBE00005B200299D
:103DD00002DA6D1E2DB2641E0B4F11E07F2E0DD83E
:103DE000002C0BDB072C09DCF1B2E0B2FFF701FE7F
:103DF00007EBC4103044414600F031F8641C24B293
:103E0000AC42EBDBBDE8F0813402002008B10122B6
:103E100000E000224FF480710148FEF70CBC000066
:103E2000000C014008B1012200E000224FF40071B3
:103E30000148FEF700BC0000000C014010B504462C
:103E4000FFF756FD7820FFF736FD0020FFF733FD22
:103E50002046FFF730FDBDE81040FFF758BD70B5B4
:103E60000D460646FFF744FD7820FFF724FD40206D
:103E7000FFF721FD002404E0305DFFF71CFD641C0A
:103E8000E4B2AC42F8D3BDE87040FFF740BD7047E4
:103E90007047000070B5082345A20F212C20FFF7C2
:103EA000BFFE45A223212E20FFF7D2FDFFF76AFFB8
:103EB0004FF47A70FEF7B8FA424C43A2232128202F
:103EC000FFF7C6FD227A0C2323212820FFF76EFF7F
:103ED0002089182805D21020FEF7A6FA2089401C58
:103EE000208180B21838182805D20320FEF79CFAEA
:103EF0002089401C208120893028DED340F2DC5507
:103F00002846FEF791FAFFF781FC082332A20C2124
:103F10000020FFF785FE082335A21C210020FFF7B3
:103F20007FFE082338A22C210020FFF779FEFFF73F
:103F300029FF6800FEF778FAFFF768FC37A2142122
:103F40000020FFF7CBFD3CA224212320FFF7C6FD74
:103F50000021A27A3C230846FFF728FF6089402809
:103F600005D21020FEF760FA6089401C608180B2A3
:103F70003038502805D20320FEF756FA6089401CDD
:103F8000608160898028D9D32846FEF74DFAFFF773
:103F90003DFC2DA21A212820FFF75AFD06232EA250
:103FA00028210020FFF73CFEBDE87040FFF7EABE85
:103FB00053544D3332000000E981A5E68EA7E59900
:103FC000A800000000000020E8BDA6E5BAA6E7A909
:103FD000BAE997B4000000002020E68C89E994AE8D
:103FE00038E4BF9DE5AD98E9809FE5BAA6200000C2
:103FF000202020E68C89E994AE3920E5878FE9807E
:104000009F20202000000000202020E68C89E994D9
:10401000AE3130E58AA0E9809F200000E58A9FE864
:1040200083BDE68C89E994AEE4B88EE5B9B3E8A126
:10403000A1E8BDA600000000E4B880E4B880E698DE
:10404000A0E5B08400000000E68C89E4B88BE4B8F9
:1040500080E994AE000000002020202020202020B5
:1040600020202020202020204B353E0002464FF407
:1040700000510148FEF7DFBA000C014070B504465C
:104080000025200601D5012000E00020FFF7B4F94B
:104090006006040E0120FFF7E9FFFFF7A5F908B15C
:1040A00044F001040020FFF7E1FF6D1CEDB2082D84
:1040B000E7D3204670BD7047FEF7C8BA30B593B05D
:1040C00028216846FCF708F914210AA8FCF704F92E
:1040D000002501200F9510951195010412958DE88A
:1040E000230004904FF4E010CDE908100224079457
:1040F0006846FEF7D7FC08B172B6FEE70AA90F20A2
:1041000081E831004FF48060CDE90D0502210AA855
:10411000FEF7FCFB08B172B6FEE74FF400401190C9
:104120000F940FA8FEF77CFB002801D072B6FEE7C3
:1041300013B030BD704700000148FEF774BF0000A7
:10414000AC010020F0B50268194B1A4C1A4D4FF023
:104150008047984205D0B84203D0A04201D0A8427F
:1041600003D122F070064A683243984205D0B84223
:1041700003D0A04201D0A84203D122F44074CA68FF
:1041800022434C6922F08002224302608A68C262A4
:104190000A688262984201D1096901630121416183
:1041A0000169C90703D0016921F001010161F0BD76
:1041B000002C0140000400400008004010B5846855
:1041C00042EA032224F47F440A432243826010BD62
:1041D000826822F070020A4342F007018160704752
:1041E00010B5036A046A24F001040462846924F0AF
:1041F000F00444EA021423F00A020A4384610262D2
:1042000010BD10B5036A046A24F0100404628469C6
:1042100023F0A00324F4704444EA023243EA01117B
:104220008261016210BDFEE7490050EAC12018BF5B
:1042300004204A0D18BF40F0010040F2FF72B2EBBB
:10424000515F08BF40F00200012808BF05207047F9
:104250000907090E002804DB00F1E02080F80014B3
:10426000704700F00F0000F1E02080F8141D704747
:1042700030380A2801D20120704700207047000022
:1042800011490C281FD2DFE800F006080A0C0E10B6
:10429000121416181A1C012014E0022012E0032048
:1042A00010E004200EE005200CE006200AE00720C4
:1042B00008E0082006E0092004E00A2002E00B20C4
:1042C00000E00C20087070470C0000207047704719
:1042D0008CB0FEF7C3F9FFF7F1FEFFF7EFF8FFF739
:1042E000D7F8FFF747F9FFF78FF8FFF71CFBFFF749
:1042F00091F96D48FEF7FCFDFEF778FF00252F468B
:104300006A480195FDF736FD0A20FEF78DF8042274
:1043100003A96648FDF7F2FEFFF7BCFD0420FEF797
:1043200055FF0028FAD0FFF771FA0A20FEF77CF853
:10433000DFF87C81FFF7E3F920B15E480779417926
:1043400088F80310BDF80C10C820414340F6FF70F8
:10435000BDF80E20C8235A43BDF81030C82463436B
:10436000B1FBF0F1B2FBF0F2B3FBF0F3BDF8124099
:10437000C8267443B4FBF0F06439643849B2643A37
:10438000643B44B252B25BB20846FEF70DFF814671
:104390001046FEF709FF83461846FEF705FF8246E2
:1043A0002046FEF701FF44490646444681F8009046
:1043B00081F801B081F802A0C87040480078087107
:1043C00098F80200012806D10020A0700820FFF70D
:1043D0005FF900F00F056078A046012806D100249F
:1043E00088F80140FFF79EF9344804700FB13C464D
:1043F00001E032480478032D01D8314808E0092D46
:1044000001D8304804E00F2D01D22F4800E02F489A
:104410001023002100901A460846FFF7A3FB0198DD
:1044200084420FD03CB12AA3062200211C20009414
:10443000FFF7CAFA05E028A3062200211C20FFF797
:10444000C3FA019498F80300009026A306220E21D7
:104450001C20FFF7B9FA28A306220021502000955E
:10446000FFF7B2FA27A3082218210020CDF8009008
:10447000FFF7AAFA26A3082218214820CDF800B099
:10448000FFF7A2FA25A3082230210020CDF800A0D2
:10449000FFF79AFA24A30822302148200096FFF75C
:1044A00093FAFFF76FFC45E7AC01002038010020CC
:1044B0000000002014020020F40100200C00002065
:1044C0002257000802570008E2560008C2560008AA
:1044D000204B3A253033640020202020202020204B
:1044E000000000002053706565644C6576656C3A89
:1044F0002530336400000000417263433A253032B6
:10450000640000004C483A252B3034640000000061
:104510004C563A252B3034640000000052483A25AE
:104520002B3034640000000052563A252B3034649E
:10453000000000007047704710B500290AD00878C5
:10454000002807D005487844FBF7EEFE002801D08C
:10455000002010BD0248784410BD00005613000032
:104560004E13000010B500290AD00878002807D0A3
:1045700005487844FBF7D8FE002801D0002010BD84
:104580000248784410BD0000461300003E130000AE
:10459000FCF737BBFCF76CBC00000000000000001B
:1045A0000000000000000000000000F80000000013
:1045B000000000333000000000160E00160E000050
:1045C000000000000000000040C07840C0784000BB
:1045D000043F04043F040400007088FC083000001D
:1045E000001820FF211E0000F008F000E018000075
:1045F00000211C031E211E0000F00888700000002E
:104600001E21232419272110000000160E0000008F
:104610000000000000000000000000E0180402009C
:10462000000000071820400000020418E00000000D
:104630000040201807000000404080F0804040000B
:104640000202010F01020200000000F00000000061
:104650000101011F01010100000000000000000035
:1046600000B070000000000000000000000000002A
:104670000001010101010101000000000000000033
:1046800000303000000000000000000080601804CE
:10469000006018060100000000E010080810E000AB
:1046A000000F102020100F00001010F80000000074
:1046B0000020203F202000000070080808887000BB
:1046C000003028242221300000300888884830003B
:1046D0000018202020110E000000C02010F800005B
:1046E00000070424243F240000F8088888080800F4
:1046F0000019212020110E0000E010888818000009
:10470000000F112020110E0000380808C8380800DA
:104710000000003F0000000000708808088870005A
:10472000001C222121221C0000E010080810E000DB
:104730000000312222110F00000000C0C000000064
:104740000000003030000000000000C0C000000089
:10475000000080B0700000000000804020100800C1
:10476000000102040810200040404040404040004A
:104770000404040404040400000810204080000025
:104780000020100804020100007048080808F0002A
:104790000000003036010000C030C828E810E000FA
:1047A0000718272423140B000000C038E000000085
:1047B000203C23020227382008F8888888700000EF
:1047C000203F202020110E00C030080808083800C3
:1047D000071820202010080008F808080810E0003A
:1047E000203F202020100F0008F88888E8081000DB
:1047F000203F20202320180008F88888E8081000AF
:10480000203F200003000000C030080808380000E6
:1048100007182020221E020008F808000008F808E7
:10482000203F210101213F20000808F8080800006E
:104830000020203F2020000000000808F8080800A1
:10484000C08080807F00000008F888C02818080019
:10485000203F20012638200008F808000000000052
:10486000203F20202020300008F8F800F8F8080049
:10487000203F003F003F200008F830C00008F80843
:10488000203F200007183F00E01008080810E00053
:104890000F10202020100F0008F808080808F0006A
:1048A000203F210101010000E01008080810E0008D
:1048B0000F18242438504F0008F888888888700022
:1048C000203F2000030C30200070880808083800C2
:1048D0000038202121221C00180808F808081800B8
:1048E0000000203F2000000008F808000008F80839
:1048F000001F202020201F000878880000C83808EA
:10490000000007380E010000F80800F80008F80061
:10491000033C0700073C03000818688080681808FB
:1049200020302C03032C30200838C800C838080079
:104930000000203F2000000010080808C8380800C8
:104940002038262120201800000000FE020202006C
:104950000000007F40404000000C30C0000000001C
:10496000000000010638C00000020202FE00000044
:10497000004040407F000000002010080408102084
:104980000000000000000000000000000000000027
:104990008080808080808080000204080000000009
:1049A0000000000000000000000080808080000007
:1049B0000019242222223F2008F8008080000000F5
:1049C000003F112020110E000000008080800000B8
:1049D000000E112020201100000000808088F800C7
:1049E000000E112020103F200000808080800000F9
:1049F000001F222222221300008080F0888888185D
:104A00000020203F20200000000080808080800067
:104A1000006B94949493600008F8008080800000FC
:104A2000203F210000203F200080989800000000D7
:104A30000020203F20200000000000809898000007
:104A400000C08080807F000008F800008080800027
:104A5000203F24022D302000000808F8000000004C
:104A60000020203F20200000808080808080800007
:104A7000203F20003F20003F008080008080000019
:104A800000203F2100203F20000080808080000027
:104A9000001F202020201F00808000808000000058
:104AA00080FFA12020110E00000000808080800087
:104AB000000E112020A0FF80808080008080800078
:104AC00020203F21200001000000808080808000A5
:104AD0000033242424241900008080E0808000001A
:104AE0000000001F20200000808000000080800067
:104AF000001F202020103F208080800000808080C8
:104B000000010E3008060100808000800080808057
:104B10000F300C030C300F0000808000808080007C
:104B20000020312E0E3120008080800000808080A7
:104B300080818E7018060100008080808080800057
:104B40000021302C2221300000000000807C020275
:104B500000000000003F404000000000FF00000097
:104B600000000000FF0000000002027C8000000046
:104B70000040403F00000000008040408000008076
:104B80000000000000010100000000000000000023
:104B9000002F000000000700070000147F147F149E
:104BA00000242A7F2A120023130864620036495524
:104BB000225000000007000000001C2241000000FD
:104BC00041221C000014083E08140008083E080892
:104BD000000000A0600000080808080800006060ED
:104BE0000000002010080402003E5149453E00002C
:104BF000427F4000004261514946002141454B310E
:104C0000001814127F10002745454539003C4A49D9
:104C1000493000017109050300364949493600064B
:104C20004949291E000036360000000056360000B3
:104C3000000814224100001414141414000041222E
:104C40001408000201510906003E4955592E007C06
:104C50001211127C007F49494936003E41414122F0
:104C6000007F4141221C007F49494941007F0909D9
:104C70000901003E4149497A007F0808087F000089
:104C8000417F4100002040413F01007F0814224144
:104C9000007F40404040007F020C027F007F0408FC
:104CA000107F003E4141413E007F09090906003E58
:104CB0004151215E007F0919294600464949493181
:104CC0000001017F0101003F4040403F001F2040A4
:104CD000201F003F4038403F006314081463000762
:104CE0000870080700615149454300007F414100B9
:104CF000000204081020000041417F00000402016E
:104D00000204004040404040000001020400002036
:104D100054545478007F4844443800384444442074
:104D200000384444487F00385454541800087E0921
:104D300001020018A4A4A47C007C040404780000F0
:104D4000447D4000004080847D00007F10284400A6
:104D50000000417F4000007C04180478007C0804B7
:104D6000047800384444443800FC242424180018F3
:104D7000242418FC007C08040408004854545420DF
:104D800000043F444020003C4040207C001C204068
:104D9000201C003C4030403C004428102844001CAB
:104DA000A0A0A07C004464544C440000087F410053
:104DB0000000007F00000000417F08000008040898
:104DC0001008E4BF9D00008060F807003E2222E248
:104DD00022223E000000010000FF2011090503FF10
:104DE000030509112000E5AD9800040484E41C07C4
:104DF00024242424A46424040400020100FF0002EB
:104E00000242827F020202020200E58F820000203D
:104E100020A86C2A3928A82A6CA820200000028229
:104E20008190924A49452422100801020200E69529
:104E3000B00090523410FF10345280708F0808F880
:104E40000800829A566322528E008040330C334011
:104E50008000E8BDA6000008884828180FE8080868
:104E600008080808000008080909090909FF0909D4
:104E7000090909080800E5BAA6000000FC2424245A
:104E8000FC252624FC242424040040308F80844CFC
:104E900055252525554C80808000E7A9BA00100CC7
:104EA0004424140405060404142444140C00004093
:104EB00040414141417F4141414140400000E9972B
:104EC000B40000F8010600F0121212F2020202FE13
:104ED000000000FF0000001F1111111F0040807F23
:104EE0000000E4B8800080808080808080808080A6
:104EF0008080808080000000000000000000000032
:104F0000000000000000E58A9F00080808F8080873
:104F1000081010FF101010F000001030101F08884B
:104F200048300E014080403F0000E883BD0008CCBF
:104F30004A49484ACC18007F88888482E00000FFF4
:104F4000121252927F00007E88888482E000E4B8CA
:104F50008E000000E09F8888888888888888880874
:104F600000000808080808080808084880403F00B2
:104F70000000E5B9B30000020212620202FE020262
:104F800042320202000001010101010101FF0101A1
:104F9000010101010100E8A1A1001088C42308F467
:104FA00093F29AF6004044C444000100FF001097B9
:104FB000543F54971040807F0000E8BDA6000008D1
:104FC000884828180FE8080808080808000008089A
:104FD0000909090909FF0909090909080800E698EA
:104FE000A00000FC4444FC0000F80808FF0808F892
:104FF0000000001F08081F008243221A071A2243DC
:105000008200E5B084000000FC565554FC001010EE
:105010001010FF101000024223124A867F00000188
:1050200046807F000000E68C8900101010FF902061
:10503000988888E98E8888A898000242817F0000BD
:1050400080844B28102847800000E994AE0040304F
:10505000EF242480E49C105454FF547C1000010180
:105060007F21512618274445455F45454400E58A80
:10507000A000101010FF1010F00000F8080808F849
:1050800000008040300F40807F00007F2020207F84
:105090000000E5878F0000020CC000F8084848486F
:1050A00008FF08098A0002027F80403F001E925ECE
:1050B00020173846F100E9809F00404042CC0004B0
:1050C000F49494FF9494F40400000040201F2048BE
:1050D0004442415F414244484000E68F9000101036
:1050E00010FF109000FE9292929292FE00000444F3
:1050F000827F0180423A4282FE9292928200E7A42D
:10510000BA0040404242424242C2424242424240CF
:105110004000201008060040807F000000020408C4
:105120003000E5B7B2000000E28282828282828291
:1051300082FE0000000000003F40404040404040F0
:10514000404040780000E9878D00101014D454547A
:1051500054FC525252D31210100040405057555533
:10516000557F5555555750404000E7BDAE000017DC
:1051700015D55557557D555755D515170000404045
:10518000407F555555555555557F40404000E58F5A
:105190008200002020A86C2A3928A82A6CA8202088
:1051A000000002828190924A49452422100801029F
:1051B0000200E695B00090523410FF103452807017
:1051C0008F0808F80800829A566322528E008040A9
:1051D000330C33408000E8AFB7004042CC000044BD
:1051E0005454547F54545444400000007F20100015
:1051F000FF15151555957F000000E6B3A800106057
:10520000028C0008080809FA0808080800000404CD
:105210007E0140404141417F414141414000E6849F
:105220008F00101012D2565A5253525A56D21210A0
:1052300010004030007785858DB5858585E70010A5
:105240006000E689A700101010FF1090001010FFFA
:105250001010F00000000444827F018040211A07F2
:1052600018003F40F000E8A18C00001088C4330013
:1052700040424242C24242424000020100FF00005E
:10528000000040807F0000000000E6A0A100101098
:10529000D0FF9010804828090E0828488800040391
:1052A00000FF00018080432C102C43808000E587A4
:1052B000860000020CE04020F84F4849FE4848486C
:1052C000080004047F000000FF2222223F22222245
:1052D000200030000000F8040404F8000000000082
:1052E0000000010202020100000000000000310085
:1052F00000000404FC0000000000000000000202A6
:1053000003020200000000000000E58AA00004047F
:10531000FF0404FC00FC0404FC000403000204037A
:105320000007020207003900000038444444F80036
:105330000000000000000102020201000000000065
:1053400000004B000000FC6090080400000000001A
:105350000000030000010200000000000000E587DB
:105360008F0082CC20FC04D454D4FF856600000753
:1053700004030001050201020700E9809F001011EB
:10538000F6023AAA6AFF6AAA3A0004020102050478
:10539000040704040500E981A5001011F620B22ECF
:1053A0002AFE292DAB0004020102050505050505AD
:1053B0000500E68EA7008444FF2426524AC34A52C1
:1053C0002600040407000404040704040400E5990B
:1053D000A800A0AFA9E9AF30AFE9B9AFA0000007BE
:1053E00004040700070404070000E8BDA600000449
:1053F000342C27F4242424040000010101010107B6
:10540000010101010100E5BAA60000FE0A8ABEAB57
:10541000AABE8A0A02000601040405020205040469
:105420000000E7A9BA00082622524AC3424A522283
:105430000600000404040407040404040400E997BB
:10544000B40000FC0102F82929F90101FF0000075E
:1054500000000101010104040700E983AD00022EF0
:105460002AABEAAE82FE122AC6000101050700003F
:10547000000702020100E5A5B3000808C8B88F08BC
:1054800088780808080000040404020101020204EC
:105490000000E79A870000405E5256DB52525E40A1
:1054A0000000040405050507050505040400E4BD26
:1054B000A0002010FC0310CF04F404548C00000062
:1054C0000F000201080F00000300E5A5BD00887869
:1054D0000F88784242F24A4640000805020508005B
:1054E000080F00000000E8A7920008F4535252F29F
:1054F0005A5650F000000807010101070101090F89
:105500000000E5BAA60000FE0A8ABEAAABAABE8ABF
:105510000A0008070008090A04040A090800E980CB
:105520009F0011F2007A4ACAFFCA4A7A02000807AD
:10553000080A09080F08090A0800E8BDAC00744F02
:10554000F44024E4BCA7A4A4200002020F0100023E
:10555000020406090000E5909100FC0404E62524FD
:1055600024E40404FC000F00000302020203080804
:105570000F00E6B19F00224400020202FE02020276
:1055800000000402090808080F0808080800E58D53
:105590008F0010FF108848FF0808F8408000000FB7
:1055A00000080601080807000100E7A7910012D2D1
:1055B000FE5190122400FF80800001000F000001C6
:1055C00001010F000000E68A80008888FF4824E47B
:1055D000243F24E4040000080F0008080502050821
:1055E0000800E5B9B300808AB28282FE8282A29A64
:1055F000800000000000000F000000000000E8A193
:10560000A10024F209FCABFAAEF812F21200000F6E
:10561000000A0603060A080F0000E8BDA60004649D
:10562000544C47F444444444040002020202020F72
:10563000020202020200E68C89008888FF48004CC2
:10564000C47546C44C0000080F0008080502020596
:105650000800E4B88B0002020202FE02122242821B
:105660000200000000000F00000000010000E4B88C
:1056700080004040404040404040404040000000EA
:1056800000000000000000000000E994AE0094F368
:105690009264DC88AAFFAABE0800000F040A070A69
:1056A0000A0F0A0A0A0020000000000C0EE1F11E99
:1056B0000C000000000000000006060000000000D2
:1056C00000001C3C64C48484C4643C9C0000000052
:1056D0008000000000003F3F000000311B0E0E1B49
:1056E00031001C3C64C48484C4643C1C0000000081
:1056F0000000000000003F3F0000383800000000BC
:1057000000001C3C64C48484C4643C1C0000000091
:105710000000000000003F3F00003838003F3F001D
:1057200000001C3C64C48484C4643C1C0000000071
:10573000E0E0000000003F3F00003838003F3F003D
:105740003F3F010202030405060708090A0B0C0D7E
:105750000E0F1010010202030405060708090A0BC8
:105760000C0D0E0F101000000000000000000102E0
:1057700003040607080900000000010203040000FA
:10578000000000000000000030313233343536377D
:105790003839414243444546403058003031323375
:1057A0003435363738396162636465664030780075
:1057B00004000008000000000000000200010000DA
:1057C00010303132333435363738396162636465CD
:1057D00066787000303132333435363738394142EB
:1057E000434445465850000002400000000000A01D
:1057F0000000000005400000000000C8000000009C
:105800000C4000000000409C000000001940000017
:105810000020BCBE0000000034400000BFC91B8E49
:1058200000000004B5400000504BCFD06607E2CF27
:10583000010000006C4100003E8251AADFEEA73457
:1058400001000000D9420000DCB5A0E23A301F9709
:10585000FFFFFFFFB4450000FD25A0C8E9A3C14F2D
:10586000FFFFFFFFFF3F000000000080000000007E
:10587000FF3F00000000008000000000C859000841
:10588000000000203801000028010008105A00081C
:1058900038010020600B0000840100081C0000009B
:1058A00043000000F8FFFFFF0C0000000E000000A6
:1058B0000F0000002E000000100100004300000057
:1058C000F8FFFFFF00404040404040404040414121
:1058D00041414140404040404040404040404040C5
:1058E000404040404005020202020202020202025F
:1058F000020202020220202020202020202020025C
:1059000002020202020290909090909010101010EB
:105910001010101010101010101010101010101087
:10592000020202020202888888888888080808081B
:1059300008080808080808080808080808080808E7
:10594000020202024000000000000000000000000F
:105950000000000000000000000000000000000047
:105960000000000000000000000000000000000037
:105970000000000000000000000000000000000027
:105980000000000000000000000000000000000017
:105990000000000000000000000000000000000007
:1059A00000000000000000000000000000000000F7
:1059B00000000000000000000000000000000000E7
:1059C000000000000000000001290D110801404006
:1059D000140210800D110C014001140A1102140A66
:1059E00011041411E9151964110A1108140A101090
:1059F0003C0A1120500912B4E93B2914E93C3E0B42
:105A000016212C37056129D4793813127A00000049
:04000005080000ED02
:00000001FF
